:0300000002277B59
:10277B00787FE4F6D8FD9060007F007E07E4F0A33D
:0A278B00DFFCDEFA7581660227D03C
:0C000300000000000000000000000000F1
:0B3A9B00EF1FAC0670011E4C70F622FD
:10389300AB07AA06EB1BAE0270011A4E600C7FAA9F
:0B38A3007E05123A9B75D9AA80EA222C
:10201800907120E04480F07F057E00123A9BE4FF37
:10202800FE12389375A75575AC5C9071327450F0F8
:102038009071307403F0907136742FF090715C7465
:1020480003F090715BE054FCF07F18EF2466FDE428
:1020580034718D82F583E4F00FEFB433EE904011C4
:10206800E4935407FF90711CE054F84FF090401728
:10207800E493547FFF90711DE054804FF09040101E
:10208800E493FF5401C43333335480FE907123E04A
:10209800547F4EF0EFC313543F4440FFA3E05480F5
:1020A8004FF0904012E493FF540FFE907146E054B5
:1020B800F04EF0EFC4540FFF90714FE054F04FF022
:1020C800904013E493543FFF907140E054C04FF0A8
:1020D800904014E493907126F0904015E493907129
:0B20E80028F0904016E49390712AF05D
:0120F30022CA
:10385700000009C4006400C80101F4004B000A001D
:0E38670000010F0405020009000A000A000A11
:1038FC00E2FE74C12FF582E43464F583E02224FCEB
:08390C0025E0FDF87403082218
:10198500E4FF1238FEC3940850581238FEC394047D
:10199500502878C2C0001238FC12390C8002C333BB
:1019A500D8FCF45ED000F278C2C0001238FC1239BF
:1019B5000C8002C333D8FC021AB378C3C0001238B6
:1019C500FC12390A8002C333D8FCF45ED000F278E9
:1019D500C3C0001238FC12390A8002C333D8FC0296
:1019E5001AB31238FEC3940840681238FEC3941027
:1019F50050601238FEC3940C502C78D2C0001238B7
:101A0500FC24F812390C8002C333D8FCF45ED000F4
:101A1500F278D2C0001238FC24F812390C8002C3C7
:101A250033D8FC021AB378D3C0001238FC24F41260
:101A3500390C8002C333D8FCF45ED000F278D3C0F1
:101A4500001238FC24F412390C8002C333D8FC028E
:101A55001AB31238FEC39414502B78E2C000123822
:101A6500FC24F012390C8002C333D8FCF45ED0009C
:101A7500F278E2C0001238FC24F012390C8002C35F
:101A850033D8FC802978E3C0001238FC24EC1239E5
:101A95000C8002C333D8FCF45ED000F278E3C000BA
:101AA5001238FC24EC12390C8002C333D8FC4ED01A
:0B1AB50000F20FEF64026003021987CB
:011AC0002203
:03005D000232FF6D
:1032FF00C0E0C0F0C083C082C0D075D000C000C095
:10330F0001C002C003C004C005C006C0077881E237
:10331F0030E607E24440F2122CFFD007D006D0056A
:10332F00D004D003D002D001D000D0D0D082D0832F
:05333F00D0F0D0E032E7
:1030F900D2AF43AB0843B6C0907132E04440F043CD
:10310900AB087877743FF208744BF2787A7430F22E
:10311900788914F27871744FF2187427F2787274FE
:10312900A8F2087410F208E4F208F208F2787E7442
:0F313900D0F2087404F208741EF2087402F22235
:10294100E4FBEB25E025E0246DF582E43438F583E2
:10295100740193FF74C12BF582E43464F583EFF0C5
:10296100EB25E025E0246FF582E43438F583E49328
:10297100FE740193FFEB25E024C3F582E43464F592
:1029810083EEF0A3EFF0EB25E024C7F582E4346495
:10299100F583E4F0A37441F0E47F01FEFDFC74C112
:1029A1002B123901F9F812040DE53F4FFFE53E4EB8
:1029B100FEE53D4DFDE53C4C8F3F8E3E8D3DF53CAA
:1029C1000BEB640260030229431219851226E0020F
:0229D10030F9DB
:1039750078C2E254BFF2E24440F2907181E4F02251
:0D39C10078C3E254CFF278C0E24440F22215
:0D39CE0078C3E2543FF278C0E24480F22258
:0D39DB0078D2E254FCF278D0E24401F222EE
:0D39E80078D2E2543FF278D0E24408F22297
:0D39F50078D3E254FCF278D0E24410F222C4
:0D3A020078E2E254F3F278E0E24402F222AE
:0D3A0F0078E2E254CFF278E0E24404F222C3
:0D3A1C0078E2E2543FF278E0E24408F22242
:0D3A290078E3E254F3F278E0E24420F22268
:0D3A360078E3E2543FF278E0E24480F222AF
:0D3A430078F2E254FCF278F0E24401F22245
:070B1E0044600C0000000020
:083AA6007890E2541FF2E222C5
:10357800E5B154F342B153A8DFD2AF7892E4F20830
:10358800F27890E254E3F2E2441CF2E254FCF2E2F4
:103598004401F208E2547FF2E24420F27895740183
:0C35A800F2187476F2123AA644A0F22247
:0C3A7700123AA644C0F243A820D2AF22AD
:10398500123AA644A0F27892E4F208F253A8DF2294
:03001E00022E5659
:102E5600C0E0C0F0C083C082C0D075D000C000C042
:102E660001C002C003C004C005C006C0077891E2D5
:102E760030E72FE24480F274FFFFFEFDFC90600C09
:102E860012043CC31203E9501990600C120420EF9F
:102E96002401FFE43EFEE43DFDE43CFC90600C12A0
:102EA6000448D007D006D005D004D003D002D00104
:0D2EB600D000D0D0D082D083D0F0D0E03258
:0E0B250044652A000000004465260000000020
:10319400C374FF9BFF74FF9AFE74FF99FD74FF983C
:1031A400FC12043CC30203E9120420EF2401FFE4EF
:1031B4003EFEE43DFDE43CFC221204209064A602A1
:1031C400043CE4FCFD7BFF7AFFF9F8D30203D390BF
:0B31D40064A6020420EE8FF002026AE5
:1034C100E5B154CF42B153A8BFD2AF75D102789CB8
:1034D100E254E3F2E2441CF2E254FCF2E24401F26F
:1034E10008E2547FF2E24420F278A17401F21874E8
:0D34F10076F2789CE2541FF2E244A0F22231
:10399500789CE2541FF2E244C0F243A840D2AF2221
:101BF90090652A1204209064A21204489064A612E7
:101C090004540000000090652A12045400000000EA
:101C190090652612043C9064A212042012028D9051
:101C290064A612044890652612045400000000902E
:101C39006541E0FEA3E0FF1231C640091231D3909D
:101C490065411231D91231C09064DF123194500FBD
:101C59009064DF1231BD1202809064DF12044812D1
:101C690031C090642F123194500F90642F1231BDFE
:101C790012028090642F12044890651DE0B401207F
:101C89001231D390651E1231D9C390651FE094C4F7
:101C990090651EE094094008E4F0A3F090651DF0FA
:101CA900906521E0B401201231D39065241231D915
:101CB900C3906525E09464906524E094004008E4AD
:101CC900F0A3F0906521F0906520E0B40120123175
:101CD900D39065221231D9C3906523E0946490654D
:101CE90022E094004008E4F0A3F0906520F09064AD
:101CF900E3E0FEA3E0FF1231C6400A9064E3E47515
:101D0900F00112026A74FFFFFEFDFC9065191231A1
:0F1D1900A5500C9065191231AC90651912044851
:011D28002298
:03002100022D7439
:102D7400C0E0C0F0C083C082C0D075D000C000C025
:102D840001C002C003C004C005C006C007789DE2AC
:102D940030E736E24480F274FFFFFEFDFC90652AC2
:102DA4001231A5500C90652A1231AC90652A120498
:102DB400489063ADE0C394FF5003E004F090648452
:102DC400E0C394FF5003E004F0D007D006D005D050
:102DD40004D003D002D001D000D0D0D082D083D090
:042DE400F0D0E03219
:0D0B3300C115C1164165390042653A000048
:10381900120420EF2401FFE43EFEE43DFDE43CFCFC
:0F38290022E47F587E02FDFC12043CC30203E937
:10338600E5B254FC42B253A9FED2AF75D104907196
:1033960000E054E3F0E0F0E054FCF0E04401F0908B
:1033A60071057409F0907104745FF0907100E05437
:1033B6001FF0E044A0F0A3E0547FF0E04420F022A8
:10394200907100E0541FF0E044C0F043A901D2AFEF
:013952002252
:03002400021E4D6C
:101E4D00C0E0C0F0C083C082C0D075D000C000C05B
:0D1E5D0001C002C003C004C005C006C007DC
:0E1E6A00907101E020E703021F1FE04480F0AA
:101E7800906539E004F0E0C394144025E4F09064E0
:101E8800F91238199064F91204489064F912382A42
:101E9800400F201B0C9064F912045400000000D27B
:011EA8001B1E
:101EA90030821620150F9064F51238199064F512D6
:0B1EB9000448123444D2158002C21508
:101EC40090653AE475F00112026AC390653BE094B0
:101ED4001490653AE094004027E4F0A3F09064E99C
:101EE4001238199064E91204489064E912382A40BF
:101EF4000F201A0C9064E912045400000000D21A56
:101F040030951620160F9064E51238199064E51286
:0B1F140004481235B4D2168002C21639
:101F1F00D007D006D005D004D003D002D001D00016
:0B1F2F00D0D0D082D083D0F0D0E032C0
:100B4000602D63F1000000000000000000000000C4
:100B50000000000000000000000000000000000095
:100B60000000000000000000000000000000000085
:100B70000043641E0000004364210000004364251C
:100B8000000000C119416428004164290041642427
:080B90000044642A000000008B
:10304C0090642A12042074212FF582E43464F583F1
:10305C00229064A2E0FF241EF582E43464F58322FE
:10306C007D00EF75F00FA424F1F9746335F0FA7B51
:10307C000122E5822EF582E43583F58322E4F0907B
:10308C006424E014F090000F22906429E4F0906422
:09309C0028F02290642A02043C91
:0E004E00906543EFF0123A50906543E0FF22B8
:1037140078C2E2543FF2E254FCF2E24440F2907187
:1037240081E04404F0907175E04401F043AA20D292
:0B373400AF75D60175D59F75D211222C
:03004B00021AC1D5
:101AC100C0E0C0F0C083C082C0D075D000C000C0EB
:0D1AD10001C002C003C004C005C006C0076C
:101ADE009064BAE4F0E5D420E503021BDEE5D7F00E
:101AEE00201904E0B4A509906424E0C394034003D4
:101AFE00021BD19064BAE0B4A515D219123095121A
:101B0E00398590600C12045400000000123A779050
:101B1E006429E0B401089064BAE0906428F01230B1
:101B2E004CE06003021BDE9064BAE0FF12309F901F
:101B3E0063F175F00FEB120485EA75F00FA425839F
:101B4E00F583C083C082906429E0FE04F0D082D079
:101B5E008312307EEFF090600C12045400000000EF
:101B6E00906428E0606AE0FFA3E06F7063906428E1
:101B7E00E0FB90642A120420741E2F123064EBF0E6
:101B8E00C21912309512304C7401F0906424E004A6
:101B9E00F090642A120420EF2401FFE43EFEE43D9F
:101BAE00FDE43CFC90642A120448E47F03FEFDFC35
:101BBE0012309FC31203E9400A90642A12045400A3
:101BCE0000000012398590600C12045400000000D1
:101BDE00D007D006D005D004D003D002D001D0005B
:0B1BEE00D0D0D082D083D0F0D0E03205
:0D3A5000E5D430E4FB8FD7E5D430E4FB2251
:0600270090653C1204B1DB
:10002D00E4FEEEC39D501590653C1204918E8275D1
:0C003D00830012016FFF123A500E80E6A3
:010049002294
:101D2900E49064A2F0A3F0C21C7F0AFEFDFC90605F
:101D39000C12043CD31203E9401912398590600C46
:101D490012045400000000E4906429F0906428F023
:101D5900C21922E49064A2F09064A2E0FFC3940344
:101D69004003021E4C74212F123055E07003021EED
:101D7900439064A2E075F00FA424F2F582E4346381
:101D8900F583E0FE741E2F123064E06E601A9064D1
:101D9900A2E02421123055123089C083C08212304A
:081DA9006CD007D006020543CF
:101DB100E49064A4F09064A3F0A3F012305DE01409
:101DC100FE9064A4E0FDC39E5022EF75F00FA424A1
:101DD100F1F582E43463F583E5822D123081E0FF71
:101DE1009064A3E02FF0A3E004F080CF9064A3E01F
:101DF100F012305DE0FEEF75F00FA424F0F582E4FF
:101E01003463F58312307EE0FF9064A3E06F6002DB
:021E1100D21CE1
:101E1300301C1DC21C9064A2E0FF24211230551215
:101E23003089C083C08212306CD007D006120543BC
:101E33009064A2E02425F582E43464F5837401F010
:091E43009064A2E004F0021D61AC
:011E4C002273
:050B980042653F000072
:1038AE0012028D9064A71204489064A7020420901F
:0B38BE007123E05498F0E0441EF0225B
:10376A0078C3E24403F2E2440CF218E2440CF27821
:10377A006AE24478F27591FF1238BD90712274079B
:08378A00F0439E7043994022B8
:103344005399E0EF24FE601714601C240270269049
:103354007123E054D8F0E0445AF0439904801612E3
:1033640038BD439905800E907123E054D8F0E044B1
:1033740059F04399017869E24448F27F017E0002E2
:0233840038937C
:103792007869E24401F2786BE230E1FA7402F2AF46
:1037A20093EF75F010A4FFAEF0E594C4540FFDEF53
:0337B2004DFF22A6
:1020F400E49064A5F0A3F0A312045400000000E4EB
:102104009064ABF0A3F074FFA3F0A3F0E4A3F0F0A9
:102114001237929064A5EEF0A3EFF09064AFE0C3A1
:10212400940240549064ABE0FEA3E0FF9064A5E009
:10213400FCA3E0FDD39FEC9E40089064ABECF0A3BD
:10214400EDF09064ADE0FEA3E0FFC3ED9FEC9E5084
:102154000F9064A5E0FFA3E09064ADCFF0A3EFF08F
:102164009064A712043C9064A5E0FEA3E0FFE4FCA5
:10217400FD120280A31204489064AFE004F0E0C3AF
:102184009414408C1238B7C006C0079064ABE0FECC
:10219400A3E0FBAA06E4F9F8D007D0061238AEC0D3
:1021A40006C0079064ADE0FEA3E0FBAA06E4F8D005
:1021B40007D0061238AE78041203FA9064A5EEF044
:0321C400A3EFF096
:0121C70022F5
:1039530075AF3F8FAF75AEB975A402E5A530E1FB36
:013963002241
:1035ED009064A71204B175AF3F8FAF9064AAE0C38A
:1035FD0094014022E5A530E0FB9064A7E475F0014D
:10360D0012049A120156F5A675AEB975A40190640F
:07361D00AAE014F080D522A1
:103624009064A31204B19064A6E06027AE070FEE85
:103634002400FDE4343F8D82F583E493FE9064A37B
:10364400E475F00112049AEE1201CF9064A6E0141E
:04365400F080D3220D
:1036BA00A3F078E3E254FCF2E24401F2907192E45E
:1036CA00F0229064B3E004F0E0C3940822C2A4C2DA
:0E36DA0096D2977F04FE22FFE0FEA80708228A
:102FF000E4FF78D3E2543FF2E24440F290718DE472
:10300000F0E254CFF2E24410F290718CE4F0123608
:10301000BCC297C2961230A5EF7030FD7F8C12248F
:10302000ED7D017F881224ED7D017F861224ED7DE8
:10303000017F8A1224EDE4FD7F821224EDE4FD7FFE
:0B304000841224EDE4FD7F801224EDDB
:01304B002262
:1038C900E4FDEE25E0FEEF30E004EE4401FEEFC337
:0938D90013FF0DEDB408EBAF067E
:0138E20022C3
:022DE800AC0736
:102DEA00E49064A7F0AF051238C9EC64816019EC6D
:102DFA0064836014EC6485600FEC6487600AEC6499
:082E0A00896005EC648D704342
:102E1200E49064A8F0A3F0EC64816004ECB483064F
:102E2200EF547FFF8017EC64856004ECB48706EFF3
:102E3200543FFF8008ECB48904EF541FFFEFC454E1
:102E42000FFE9064A8F0EF540FFFA3F0EE75F00AA6
:032E5200A42FFFAB
:012E5500225A
:0529D3009064A7EFF085
:1029D800E4A3F01236BA1236D7123A9BE49064A9EF
:1029E800F0122A479064A9E09064A71236E18002A9
:1029F800C313D8FC30E004D2A48002C2A47F047EB2
:102A080000123A9B122A5140D878E3E254FCF2783B
:102A1800E0E24410F2E49064A9F09064A8E025E0B4
:102A2800F0122A4730A4079064A8E04401F0122A63
:0E2A38005140E7C296C297C2A49064A8E0FF86
:102A460022C2967F047E00123A9B22D2967F047E93
:0F2A560000123A9B9064A9E004F0E0C3940822B8
:05392C009064A6EFF01D
:10393100E4FE1229D3AE079064A6E0FFAD06022D86
:01394100E89D
:082A65009064B1EFF0A3EDF065
:102A6D00E41236BA1236D7123A9BE49064B3F012E0
:102A7D002AEB9064B3E09064B11236E18002C31387
:102A8D00D8FC30E004D2A48002C2A4122ADA123695
:102A9D00CC40DCE49064B3F0122AEB9064B3E0FF19
:102AAD009064B2E0FEA807088002C313D8FC30E0A2
:102ABD0004D2A48002C2A4122ADA1236CC40D9C2A2
:0C2ACD00967F047E00123A9BC297C2A4C0
:102AD900227F047E00123A9BD2967F047E00123A2E
:0C2AE9009B22C2967F047E00123A9B22C2
:1030A5001232B9D3906469E09433906468E094086F
:1030B500503CC3A3E094D0906468E09407402F90FF
:1030C500646AE0D3940C5026E0C394014020A3E049
:1030D500D3941F5019E0C394014013A3E0D394186F
:1030E500500CA3E0943C5006A3E0943C40037F00C1
:0430F500227F012213
:0524ED009064ADEFF06A
:1024F200A3EDF0EF6480601D9064ADE0FF64826044
:1025020014EF6484600FEF6486600AEF64886005EC
:05251200EF648C706C09
:10251700E49064AFF0A3F09064AEE0FFC3940A4088
:1025270007EF75F00A84A3F09064AEE075F00A84B3
:10253700AFF09064B0EFF09064AFE0FEC454F04F9A
:102547009064AEF09064ADE0FF64806004EFB48205
:10255700099064AEE0547FF080229064ADE0FF64A0
:10256700846004EFB486099064AEE0543FF0800CB9
:0C2577009064ADE0B48805A3E0541FF0B0
:10258300E4FD7F8E122A659064ADE0FFA3E0FD12A7
:092593002A657D807F8E022A6515
:1033C600906534E0FD7F801224ED906533E0FD7F4B
:1033D600821224ED906532E0FD7F841224ED906523
:1033E60031E0FD7F861224ED906530E0FD7F881286
:0F33F60024ED90652EA3E02430FD7F8C0224EDA2
:103405009064A6A3E02430FD7F8C1224ED9064A87F
:10341500E0FD7F881224ED9064A9E0FD7F861224EB
:10342500ED9064AAE0FD7F841224ED9064ABE0FD8D
:0F3435007F821224ED9064ACE0FD7F800224EDD5
:1032B9007F8112392C90646EEFF07F8312392C9044
:1032C900646DEFF07F8512392C90646CEFF07F8785
:1032D90012392C90646BEFF07F8912392C90646A53
:1032E900EFF07F8D12392CEF24D0FEE4340790647F
:0632F90068F0A3CEF022F4
:040B9D004165350079
:1037D8009064A2F090653602049190000612016F81
:1037E800FE90000802016F9000091201E190000CA0
:0137F80022AE
:10152100E49064A2F07FFFA374FFF090653612048B
:10153100B190000112016FFE120156FDEEC39D50E4
:10154100030216B31237DC900001E41201E19000AE
:101551000E1204BA120510EFF46008906535742379
:10156100F08009906535E06003E014F01237DC90FB
:10157100000312016F6F601590000512016F600D7D
:10158100900004E41201E19000030216AF900005FF
:1015910012016FFE90000412016FC39E500B1237AF
:1015A100DC900004740102019C1237DC90000212ED
:1015B100016F6F6048EFF4701C1237E2C39E400A5E
:1015C10074051237D890000280611237DC90000A4E
:1015D10074010216A61237DC90000874011237F26A
:1015E10012016F6F906536600C120491740112370D
:1015F100EFEF0216A6120491900009803DEFF470FE
:10160100411237DC90000912016FD394005003029C
:1016110016A990000B12016FFE90000A12016FD300
:101621009E401174011237D890000C12016F906422
:10163100A3F080541237DC90000A740112019C025D
:1016410016A91237DC1237E9C394FF50089000083D
:10165100740112019C1237E2B506089064A274036A
:10166100F080201237DC9000071237E56E70399058
:1016710064A274041237DB90000612016F90000817
:101681001201E19064A3EFF01237DCE41237EF743A
:10169100FF1201E19064A3E09000111201E1906456
:1016A100A2E09000121201E11237DC900002EF1269
:0216B10001E155
:0116B3002214
:1034FE0078E2E2543FF2E24440F2907191E0F01231
:10350E00391412357812371412373F1234C1123A69
:10351E005D123A6A12376A122941122FF01233865F
:0D352E001239951239427F017E0002389358
:102F910012201875D95590715EE054FEF075D9BBB9
:102FA1001234FED2A37FE87E03123893C2A375D9EF
:102FB100AA1237F975D9AA7B017A6379AC12152166
:102FC1001224337B017A647983121521122644126B
:102FD10021C8121F3A122AF5122815122368121D50
:0F2FE10029121837120D66121BF975D9AA80BF75
:100BA1006027645C000000000000000000000000FD
:100BB1000000000000000000000000000000000034
:0B0BC100000000000000000000000029
:0C3A83007B017A64795C740CF0E4FF2293
:103914007E007F277D007B017A64795C12054390E9
:0839240064A6123A8302362466
:0E39A500E4FF1239539064AA123A830235ED02
:10348300FEE02FFFEC3EFEA3E02FFFEC3EFE22FA10
:103493001204207E00EB2FFFEE3AFE3395E0FDFC95
:1034A300221203FA7E009064A6E022FC9064AB0231
:0E34B30004489064AB0204209064A702042039
:050FAD009064A6EFF0C6
:100FB2009064AB120454000000007FA5123A501254
:100FC20034B5EF24A5FFE43EFEE43DFDE43C1234DB
:100FD200AE9064A6E0FF64016032EF6402602DEF20
:100FE20064036028EF64046023EF6405601EEF640D
:100FF200066019EF64096014EF640A600FEF641170
:10100200600AEF64126005EF641370207F0512110D
:101012008D12119FC0001234BB1234A72405FDE4C7
:1010220033CD2FFFEE3D12349D0211579064A6E09E
:10103200FF6407600AEF64086005EF641070337F95
:1010420006123A509064A6E0FF12117512119FC069
:1010520000C002C0031234BB78081234A42406FD77
:10106200E433CD2FFBEE3DA3123492D003D0020223
:1010720011579064A6E0FF640B600FEF640C600AE6
:10108200EF64146005EF640D70467F0712118D78CE
:10109200101203FA1211751211A9C000C002C00386
:1010A2001234BB78101234A42407FDE433CD2FFB95
:1010B200EE3DFAA312042078081203FA7E00EB2F09
:1010C200FBEE3A9064A7123492D003D00202115779
:1010D2009064A6E0640E600302115F7F0B123A5027
:1010E2007F0E123A50906468E0FF123A50906468A2
:1010F200E0A3E0FF123A5090646AE0FF123A509087
:10110200646BE0FF123A5090646CE0FF123A509028
:10111200646DE0FF123A5090646EE0FF1211A9C0B4
:1011220000C001C002C003906468E02419FFE433E8
:10113200FEE0A3E07C002FFFEC3E90646A12348351
:10114200A3E02FFFEC3EA31234833395E0FDFCD0E5
:1011520003D002D001D0001202801234AF1234B593
:10116200E4FEFD1234AE1234B5123A507F017E0015
:03117200023893AD
:10117500123A509064A712042078081203FA123A22
:10118500509064A712042022123A509064A6E0FF02
:10119500123A509064A712042022123A509064AB80
:0E11A50012043C22123A509064AB12043C2219
:050BCC0042654100003C
:10373F00123A02123A0F123A29123A36123A431239
:10374F0039F51239E81239DB1239CE1239C178E264
:0B375F00E254FCF278E0E24401F222A8
:10259C00C3906542E094C8906541E09400500302FA
:1025AC002643E4F0A3F090647D30A503F08003741F
:1025BC0001F0D20430A207E490647EF080069064AF
:1025CC007E7401F0D20530A107E490647FF08006A0
:1025DC0090647F7401F0D206208607E4906479F051
:1025EC0080402087089064797401F0803520900831
:1025FC009064797402F0802A2093089064797403B3
:10260C00F0801F2094089064797404F0801420B03A
:10261C00089064797405F0800920A7069064797499
:10262C0006F0D20120A00790648174018004E4902C
:08263C006481F0A3F0D20A2230
:100BD100C11A4464E5000000004464E9000000001B
:0E0BE1004464ED000000004464F100000000D8
:0C3A8F00E4FDFC02043C12043C02028036
:0D3A5D0078D3E254F3F278D0E24420F22254
:1035B4009064ED1204209064E9123A959064ED123F
:1035C40004489064E9120454000000009064F1126D
:1035D40004209064E5123A959064F11204489064D2
:0935E400E512045400000000226D
:1021C8009064A2120454000000009064A612045403
:1021D800000000007FF47E019064ED123A8FC31274
:1021E80003E95006201A030222977F2E7E0490648A
:1021F800F1123A8F12029BE47B03FAF9F8120326D4
:102208009064A6120448301A0C9064A21204540078
:102218000000008027E47F24FEFDFC9064A61204E1
:102228003C12029BE47B0AFAF9F81203269064ED4B
:1022380012043C1203269064A21204489064DB1234
:1022480004209064A6123A959064DB1204489064C6
:10225800F1120454000000009064ED1204540000D0
:102268000000C21A9064A2120420906473120448F9
:10227800E47FE77E03FDFC90647312043CD31203F1
:0F228800E9400A906473120454000003E7D2087F
:012297002224
:100BEF004464F5000000004464F900000000446410
:0E0BFF00FD0000000044650100000000C11B65
:063AAE00E4FDFC02043CF3
:0D3A6A0078C2E254CFF278C0E24404F222A8
:103444009064FD1204209064F512043C12028090F2
:1034540064FD1204489064F51204540000000090C6
:1034640065011204209064F912043C1202809065F4
:0F347400011204489064F9120454000000002271
:102AF5009064A2120454000000007FF47E019065EA
:102B050001123AAEC31203E95003301B6C301B0CA3
:102B15009064A212045400000000801C7FA67E0E63
:102B25009064FD123AAE12029B90650112043C12AC
:102B350003269064A21204489064FD120454000018
:102B4500000090650112045400000000C21BE47FE0
:102B5500FF7EFFFDFC9064A212043CC31203E94012
:102B65000A9064A21204540000FFFF9064A21204AC
:092B75002090646F120448D2079D
:012B7E002234
:100C0D004464DF000000004464DB00000000426427
:100C1D00E300004464D3000000004464D7000000EA
:010C2D0000C6
:10368A00120420EF2401FFE43EFEE43DFDE43CFC8D
:10369A00227F7F7E967D987C0012043CC30203E958
:1036AA0012042012028DE47B64FAF9F8C30203E9DA
:101F3A00E47F307E75FDFC9064DF1236A3400D907D
:101F4A0064DF120454000000001239A5E47FE87E21
:101F5A0003FDFC9064DB1236A340617F187EC67DC8
:101F6A009A7C3B90645C1236A3500C90645C1236E7
:101F7A008A90645C12044890646012369B500C90FC
:101F8A00646012368A90646012044890646412365F
:101F9A009B500C90646412368A90646412044890D0
:101FAA0064DB120420C3EF94E8FFEE9403FEED9481
:101FBA0000FDEC9400FC9064DB1204489064D31298
:101FCA00043C90645C1236AA500E90645C120420A1
:101FDA009064D3120448D20C9064D712043C9064E3
:101FEA00601236AA500E9064601204209064D712D0
:101FFA000448D20DC39064E4E094889064E3E094CA
:0D200A0013400AE4F0A3F0D20CD20DD20E68
:0120170022A6
:100C2E00C100C101C102C103C104C105C106C10792
:100C3E00C108C109C10CC10DC10EC10FC110C11136
:100C4E00C112C113C11441651D0042651E00004151
:100C5E0065200041652100426522000042652400A6
:010C6E000085
:10327100906479E0FFE4FCFDFE9064A702044890AD
:103281006460E47B64FAF9F8120420020326906476
:10329100A2E075F00FA422906477E0FEA3E0FFE4C2
:1032A100FCFD22E47BE87A03F9F890645C229064E7
:0832B100A2E0FF75F00FA4225A
:10183700E49064A2F0F09064A2E0FFC39403400335
:1018470002198474252FF582E43464F583E070036C
:1018570002197B12328F24F3F582E43463F583E0B7
:101867001204EA188680188B8B18908C189A8E1899
:10187700959419219819259919299A0000192BD29D
:101887000002192BD20C02192BD20D02192BD20EE2
:1018970002192BD20FEF75F00FA424F5F582E4346B
:1018A70063F583E0FDEF75F00FA424F4F582E434CB
:1018B70063F583E02DFEE433906468F0A3CEF01265
:1018C70032AF24F6F582E43463F583E090646AF07E
:1018D700EF75F00FA424F7F582E43463F583E09005
:1018E700646BF01232AF24F8F582E43463F583E0D9
:1018F70090646CF0EF75F00FA424F9F582E434637B
:10190700F583E090646DF012328F24FAF582E434A7
:1019170063F583E090646EF0800AD2128006D213DA
:101927008002D214906424E0D394004003E014F0C2
:101937009064A2E0FF2425F582E43464F583E4F0A3
:10194700741E2FF582E43464F583E4F074212FF5D7
:1019570082E43464F583E4F0FE7F0FC006C007FD20
:1019670012328F24F1F9746335F0FA7B01D007D076
:0D197700061205439064A2E004F002183D42
:011984002240
:060D6600200003020E381C
:100D6C009064A212045400000000C20090651DE0C3
:100D7C006003020E3804F01232717F01120FAD9035
:100D8C00647A1232747F02120FAD90647B1232744B
:100D9C007F03120FAD90647D1232747F04120FAD7D
:100DAC0090647E1232747F05120FAD90647F123204
:100DBC00747F06120FAD90646F12042012327A7F8A
:100DCC0007120FAD90647312042012327A7F08124E
:100DDC000FAD90647C1232747F09120FAD1232A4E5
:100DEC0012328912327A7F0B120FAD12328012320C
:100DFC007A7F0C120FAD1232B99064A71204540012
:100E0C000000007F0E120FAD12329812327A7F1052
:100E1C00120FAD9064801232747F11120FAD90647A
:0C0E2C006412328312327A7F14120FAD70
:100E380030010AC2011232717F01120FAD30020D6A
:100E4800C20290647A1232747F02120FAD30040D20
:100E5800C20490647D1232747F04120FAD30050D08
:100E6800C20590647E1232747F05120FAD30060DF4
:100E7800C20690647F1232747F06120FAD300710DD
:100E8800C20790646F12042012327A7F07120FADE6
:100E9800300810C20890647312042012327A7F0856
:100EA800120FAD30090DC20990647C1232747F09AB
:100EB800120FAD300A18C20A9064811232747F1280
:100EC800120FAD9064821232747F13120FAD300C82
:100ED80010C20C1232A412328912327A7F0B120F0E
:100EE800AD300D0DC20D12328012327A7F0C120F06
:100EF800AD300E16C20EE47B64FAF9F89064641201
:100F0800328912327A7F14120FAD300F23C20F903C
:100F18006520E0701B78A67C647D017B017A64798A
:100F280068FE7F071201301234059065207401F0C5
:100F380030100DC21012329812327A7F10120FAD93
:100F480030110DC2119064801232747F11120FADEE
:100F5800301219C21290645C120454000000009010
:100F680064DB120454000000001239A5301319C2C2
:100F780013906460120454000000009064DB1204B3
:100F880054000000001239A5301419C2149064648A
:100F9800120454000000009064DB120454000000A6
:050FA800001239A52232
:100C6F005463BF00010153000204730003075300D4
:100C7F0004091D00050CED5E63D301010203040599
:100C8F0002060708090A030B0C0D0E0F04101112B0
:100C9F0013140515161718195363AC0A000000003A
:0E0CAF00033241000000000001FF3658000033
:0F000F00EC75F006A424D3F582E43463F5832264
:10314800E4FD9064A4F0A374FFF0ED25E025E024ED
:10315800C1F582E43463F583E0FAA3E0D39FEA9EE5
:10316800401CED25E025E024BFF582E43463F583B7
:10317800E0FFA3E09064A4CFF0A3EFF080050DED8D
:0B318800B405C79064A4E0FEA3E0FFC4
:013193002219
:1037B500E4FEFC12000FE0B5071112000FE5822DA3
:1037C500F582E43583F583E0FE80050CECB405E372
:0237D500AF063D
:0137D70022CF
:10365800E49064A2F0A3F07F0212334412379290F0
:1036680064A2EEF0A3EFF09064A2E0FEA3E0FF12E4
:1036780031489064A2EEF0A3EFF09064A2E0A3E0DA
:01368800FF42
:01368900221E
:102433009063BDE070030224ECE0FFA3E0FD1237DC
:10244300B5E49063BDF0A3F0EF1204EA2471012414
:102453007D0424890624950924A10B24AD0E24B9F7
:102463001024C51324D11524DD18000024EC906436
:10247300A7120454000000CF806A9064A71204548A
:10248300000100CF805E9064A7120454000000D2C4
:1024930080529064A7120454000100D280469064D5
:1024A300A7120454000000D1803A9064A712045488
:1024B300000100D1802E9064A71204540000007F15
:1024C30080229064A71204540001007F8016906458
:1024D300A7120454000000D0800A9064A712045489
:0924E300000100D07F0D120FADC5
:0124EC0022CD
:100CBD0044642F0000000060286433000000000031
:100CCD000000000000000000000000000000000017
:100CDD000000000000000000000000000000000007
:0B0CED0000000041645B0041642E0029
:1031DF00FFEE34F8FEE434FFFDE434FFFCE4FAF9CB
:1031EF00F812029BE4229064A5E0FEA3E0FF22FA0E
:1031FF00F9F8120326AD07C322FEE434FFFDE434D1
:10320F00FFFCE42225E02433F582E43464F58322C5
:09321F00FDFC12043CC30203E9AA
:042EC300AB07AA06A9
:102EC700E49064A5F0A312045400000000AE02AF22
:102ED7000390645BE0FD04F0ED123213EEF0A3EF14
:102EE700F090645BE0C394144002E4F0E49064A5BE
:102EF700F09064A612043C9064A5E0123213E0FE41
:102F0700A3E0FFE4FCFD1202809064A6120448903F
:102F170064A5E004F0E0B414D8E47B14FAF9F8905F
:082F270064A612042002032637
:10396400E4FDED123213EEF0A3EFF00DEDB414F21A
:013974002230
:0816B4009064A5EEF0A3EFF035
:1016BC00E4FDC3EF940BEE940E500A1231F594F442
:1016CC00EE940150057DFF021834D3EF9495EE94FF
:1016DC000B4005E4FD021834D3EF944DEE94065004
:1016EC00057D64021834D3EF9495EE940B5028EFDB
:1016FC009439EE940A40201231F5EF24C7FFEE34F2
:10170C00F51232087B121231ED7B5C7A011231FF3B
:10171C0074129DFD0218341231F5D39439EE940AEB
:10172C005031EF943BEE940940299064A5A3EF242B
:10173C00C5FFEE34F61232087B221231ED7BFE121D
:10174C0031FE74229DFDC3941240030218347D12A5
:10175C000218341231F5D3943BEE94095031EF94C6
:10176C007CEE940840299064A5A3EF2484FFEE340A
:10177C00F71232087B331231ED7BBF1231FE74331A
:10178C009DFDC3942240030218347D2202183412AA
:10179C0031F5D3947CEE94085027EF94F0EE940737
:1017AC00401F9064A5A3EF24107B441231DF7B8C87
:1017BC001231FE74449DFDC39433506C7D3302187A
:1017CC00341231F5D394F0EE94075026EF941AEEC0
:1017DC009407401E9064A5A3EF24E67B541231DFDE
:1017EC007BD61231FE74549DFDC39444503A7D4413
:1017FC0080361231F5D3941AEE9407502BEF944D9A
:10180C00EE940640239064A5A3EF24B3FFEE34F9C5
:10181C001232087B641231ED7BCD1231FE74649D63
:0A182C00FDC3945450027D54AF0533
:01183600228F
:10281500E49064A2F0A3F0A3F07F031233441228DE
:0C282500A2122EC39064A3EEF0A3EFF00B
:1028310090642EE070327FF47E01A312321F402893
:1028410090642F120454000000001228A21239646F
:1028510090653FE0FEA3E0FF9064A3EEF0A3EFF0EC
:0828610012288C90642E04F093
:10286900E47FE87E0390642F12321F401590642F95
:10287900120454000000009064A3E0FEA3E0FF12DC
:02288900288C99
:10288B00221216B49064A2EFF090647CF0E4906492
:10289B00A3F0A3F0D209221220F490653FEEF0A32F
:0328AB00EFF02229
:100CF80044650500000000446509000000004465E3
:050D08000D00000000D9
:10387500EF2401FFE43EFEE43DFDE43CFC02044888
:0E388500E47FE27E04FDFC12043CC30203E972
:102298007F041233441220F490653FEEF0FAA3EF66
:1022A800F0FB90650D120420EF2408FFE43EFEE4E5
:1022B8003DFDE43CFC90650D120448D3EB9400EA24
:1022C8009408906509501512042090650912387514
:1022D80090650512045400000000800712045400A1
:1022E80000000090650912388540119065091204B4
:1022F8005400000000E4906480F0D211C39065405F
:10230800E094C790653FE0940B9065054015120472
:102318002090650512387590650912045400000074
:1023280000800712045400000000906505123885EB
:1023380040129065051204540000000090648074F7
:1023480001F0D211E47FE87E03FDFC90650D1238A0
:0F2358008C400C90650D12045400000000D2114F
:012367002253
:100D0D0044651900000000446511000000004465B1
:050D1D001500000000BC
:1038E3007C0A7D50120516E47B0AFAF9F8120326C6
:0938F300E4FB7A10F9F802032647
:0E39B3007E007C007D641202037D96020215E8
:10236800E49064A2F0A3F0A3F07F011233449065D7
:102378001512043CC000C001C002C0031220F4E4DE
:10238800FCFDD003D002D001D00012028090651568
:10239800120448906511120420EF2401FFE43EFE68
:1023A800E43DFDE43CFC906511120448E47FE87EBE
:1023B80003FDFC90651912043CC31203E9406B90BD
:1023C800651512042090651112043C1203269065CD
:1023D800151204489065151204201238E39064A27F
:1023E800EEF0A3EFF09064A2A3E0FF1239B3A3EFDD
:1023F800F090651512045400000000906511120455
:102408005400000000906519120454000000009068
:1024180064A4E090647AF09064A2E0FFA3E0906482
:0A24280077CFF0A3EFF0D210D2023C
:012432002287
:100D22004C649601010203040502060708090A53EE
:100D320064830A000000000364AF000000000002A8
:050D4200FF3228000053
:10383800E4FFFDFCAB1BAA1AA919A818C30203E9E7
:0F384800EE75F006A42496F582E43464F583222D
:103228009064A2120454000000009064A674FFF099
:10323800AF1BAE1AAD19AC189064A21204487E02F6
:1032480012383870079064A604F0800D7E04123896
:103258003870069064A67402F09064A212045400B8
:083268000000009064A6E0FFE5
:01327000223B
:1036E800E49064A2F0FE123848E0B5071412384896
:1036F800E5822DF582E43583F583E09064A2F080BD
:0B370800050EEEB402E09064A2E0FFAA
:013713002293
:10264400906494E070030226DFE0FFA3E0FD1236FD
:10265400E8E4906494F0A3F0EF1204EA267C0126E7
:10266400880326940426A00526AC0626B80826C4AA
:102674000926D00A000026DF9064A7120454000043
:10268400004780529064A71204540001004780461A
:102694009064A712045400020047803A9064A71281
:1026A400045400030047802E9064A71204540000D1
:1026B400004880229064A712045400010048801648
:1026C4009064A712045400020048800A9064A71280
:0B26D4000454000300487F0D120FADFE
:0126DF0022D8
:100D470041601801426019000041601B0041601CAE
:0E0D57000041601D0041601E7F42601FFFFFD3
:10353B00E4F561AE3EAD3DAC3C853F178E168D1567
:10354B008C14787EE254FCF2E24514F218E515F285
:10355B0018E516F218E517F2787FE254FBF2E25405
:0D356B00FB4404F2E24401F27F01022B7FD9
:1008CC009064A2EFF0E0FF24BDF582E43464F5837C
:1008DC00E004F074BF2FF582E43464F583E4F07423
:1008EC00BD2FF582E43464F583E0C39563500302B5
:1008FC000B1D9064A2E0FB24BDF582E43464F58307
:10090C00E4F09038689364016003020ACE7F01FE24
:10091C00FDFC74C12BF582E43464F583E0F9F81224
:10092C00040DE51F4FF51FE51E4EF51EE51D4DF59B
:10093C001DE51C4CF51CAF1FAE1EAD1DFC78011245
:10094C0003FAEF5455FBEE5455FAED5455F9EC54AB
:10095C0055F8C3E51F9BF53BE51E9AF53AE51D9945
:10096C00F539E51C98F538AF3BAE3AAD39FC780259
:10097C001203FAEF5433FBEE5433FAED5433F9EC23
:10098C005433F8E53B5433FFE53A5433FEE5395420
:10099C0033FDE5385433FCEB2FF53BEA3EF53AE9F1
:1009AC003DF539E83CF538AF3BAE3AAD39FC78044F
:1009BC001203FAEF253BFFEE353AFEED3539FDEC2F
:1009CC003538FCEF540FF53BEE540FF53AED540F60
:1009DC00F539EC540FF538AF3BAE3AAD39FC78082D
:1009EC001203FAEF253BFFEE353AED3539FDEC35C8
:1009FC0038EFF53BE4F53AEDF539E4F538AE3AACC1
:100A0C003878101203FAEF253BFFEE353AFEEFF57E
:100A1C003BEEF53AE4F539F5389064A2E025E02494
:100A2C00CBF582E43464F583E0FEA3E0D39553EE7A
:100A3C00955240249064A2E0FF25E024CBF582E49B
:100A4C003464F583E0F552A3E0F55374C12FF582BD
:100A5C00E43464F583E0F564903868E493FFE4FCD7
:100A6C00FDFEAB3BAA3AA939A838D31203E9405290
:100A7C00AF650565D3EF9403748094805003020B2B
:100A8C001DE4F565F51FF51EF51DF51C7F01FEFD3A
:100A9C00FCA964A80112040D8F1B8E1A8D198C18D9
:100AAC00E47F01FEFDFCA80112040D8F338E328D04
:100ABC00318C30E4F552F553756420122C03433716
:100ACC000222E4F5657F01FEFDFC9064A2E0FB24AC
:100ADC00C1F582E43464F583E0F9F812040DE51BEA
:100AEC004FF51BE51A4EF51AE5194DF519E5184C9D
:100AFC00F518E47F01FEFDFCA80312040DE5334F4D
:100B0C00F533E5324EF532E5314DF531E5304CF546
:020B1C00302285
:10058D00E4F56690386CE493FFE566C39F40030283
:10059D0008CBE56625E02400F582E4346085828A87
:1005AD007F548F8B7E0E8E8C758903758889E566D9
:1005BD0025E02400F582E4346085828A8F8B758C6A
:1005CD0012758904758889E56625E02408F582E4AD
:1005DD003460F583E0FCA3E0C3950FEC950E502E2F
:1005ED00E56625E02414F582E43460F583E0FCA390
:1005FD00E0C39513EC95125015AF600560EF9402B2
:10060D0074809480400BE4F5605337FD8003E4F56E
:10061D0060E53730E125E56625E024CBF582E4344D
:10062D0064F583E4F0A3F0E56625E024CFF582E4DC
:10063D003464F583E4F0A3F00206DBE56625E024DF
:10064D0008F582E4346085828A8E8B758C0A7589F3
:10065D00267588892088FDE5F130E00875F107E4FD
:10066D00F50AF50BAE0AE50B7802C333CE33CED8BF
:10067D00F9FFE56625E024CBF582E43464F583EEDD
:10068D00F0A3EFF0E56625E02414F582E4346085EF
:10069D00828A758B12758C0A7589277588892088D1
:1006AD00FDE5F130E00875F107E4F50AF50BAE0A4A
:1006BD00E50B7802C333CE33CED8F9FFE56625E0DE
:1006CD0024CFF582E43464F583EEF0A3EFF0E56614
:1006DD0025E024C3F582E43464F583E0FEA3E078DD
:1006ED0002CEC313CE13D8F9F5518E50E56625E031
:1006FD0024CBF582E43464F583E0FEA3E0FF90386B
:10070D0064E493FC740193FDC3EF9DEE9C4017E5EB
:10071D006625E024CFF582E43464F583E0FEA3E0A2
:10072D00C39DEE9C50028068E56625E024CBF582E2
:10073D00E43464F583E0FEA3E0C39551EE9550409B
:10074D001CE56625E024CFF582E43464F583E0FEF4
:10075D00A3E0C39551EE955040030207E774BB2506
:10076D0066F582E43464F583E004F074BB2566F528
:10077D0082E43464F583E0FF903869E493FEEFD3AF
:10078D009E406474BB2566F582E43464F583E4F021
:10079D00E56625E02404F582E43460F583E0FEA3EC
:1007AD00E0FFE56625E02408F582E43460F583EE8C
:1007BD00F0A3EFF0E56625E02410F582E43460F552
:1007CD0083E0FEA3E0FFE56625E02414F582E43422
:1007DD0060F583EEF0A3EFF0800D74BB2566F58216
:1007ED00E43464F583E4F0E56625E02404F582E461
:1007FD00346085828AE56625E02400F582E4346064
:10080D0085828B758C0A7589207588CB2088FDE5CE
:10081D00F130E00875F107E4F50AF50BE56625E022
:10082D002404F582E4346085828A758B547F0E8FA3
:10083D008C7589237588897E0A8E8A8F8BE566254E
:10084D00E02404F582E4346085828CE4F5897588B2
:10085D0029E56625E02410F582E4346085828AE579
:10086D006625E02400F582E4346085828B8E8C75DC
:10087D0089207588CB2088FDE5F130E00875F107FA
:10088D00E4F50AF50BE56625E02410F582E4346005
:10089D0085828A758B547F0E8F8C75892475888916
:1008AD00758A0A8F8BE56625E02410F582E43460A5
:0F08BD0085828CE4F589758829056602059022ED
:1011B300E4F56690386CE493FFE566C39F40030251
:1011C300136BE56625E024C3F582E43464F583E01C
:1011D300FEA3E07802CEC313CE13D8F9F5518E5097
:1011E300E56625E024CBF582E43464F583E0FEA3D1
:1011F300E0D39551EE9550402EE56625E024CFF5DA
:1012030082E43464F583E0FEA3E0D39551EE955078
:10121300401574BF2566F582E43464F583E4F0AFCA
:10122300661208CC02136690386BE493FFC3E55152
:101233009FFFE5509400FED3EF9400EE940040022C
:1012430080047E007F00E56625E024CBF582E4344C
:1012530064F583E0FCA3E0C39FEC9E4003021359B3
:1012630090386BE493FFC3E5519FFFE5509400FE74
:10127300D3EF9400EE9400400280047E007F00E5EB
:101283006625E024CFF582E43464F583E0FCA3E033
:10129300C39FEC9E400302135974BD2566F582E497
:1012A3003464F583E4F074BF2566F582E43464F5B1
:1012B30083E004F074BF2566F582E43464F583E0CB
:1012C300C39563500302136674BF2566F582E43445
:1012D30064F583E4F07F01FEFDFC74C12566F582AD
:1012E300E43464F583E0F9F812040D1203B8E51F42
:1012F3005FF51FE51E5EF51EE51D5DF51DE51C5C36
:10130300F51CE47F01FEFDFCA966A80112040D1281
:1013130003B8E5335FF533E5325EF532E5315DF56C
:1013230031E5305CF530E47F01FEFDFC74C12566D8
:10133300F582E43464F583E0F9F812040D1203B87E
:10134300E51B5FF51BE51A5EF51AE5195DF519E571
:10135300185CF518800D74BF2566F582E43464F5D6
:0913630083E4F005660211B622D4
:102C0300E4F56690386CE493FFE566C39F506EE588
:102C13006625E024CBF582E43464F583E4F0A3F085
:102C2300E56625E024CFF582E43464F583E4F0A37C
:102C3300F0E56625E02404F582E43460F583E0FEE4
:102C4300A3E0FFE56625E02408F582E43460F5831C
:102C5300EEF0A3EFF0E56625E02410F582E434609E
:102C6300F583E0FEA3E0FFE56625E02414F582E4A6
:0E2C73003460F583EEF0A3EFF0056680862254
:1028AE00E4F56690386CE493FFE566C39F5067903D
:1028BE006018E0FF7E00C39410748094805053EF34
:1028CE009408748094804025E56625E02400F58206
:1028DE00E43460F583E0FEA3E0FFE56625E0240422
:1028EE00F582E43460F583EE8FF012026AE5662518
:1028FE00E02400F582E43460F583E0FEA3E0FFE51A
:10290E006625E02410F582E43460F583EE8FF01234
:10291E00026A0566808D906018E0C39410748094EE
:10292E008040054337048006906018E004F07F0174
:03293E00022B7FEA
:102C8100E4FFFEFDFCAB1BAA1AA919A818C3120385
:102C9100E9606390601AE004F07006906019E00446
:102CA100F0903860E493FE740193FF4E602ED39050
:102CB100601AE09F906019E09E4021E4F0A3F0F5D6
:102CC1001FF51EF51DF51CF533F532F531F530F51F
:102CD1001BF51AF519F518C218022C03903862E495
:102CE10093FE740193FFD390601AE09F906019E006
:0D2CF1009E400AD21822E4906019F0A3F072
:012CFE0022B3
:05136C009064B5EFF0F4
:10137100A3E0FCA3E0FDA3E0FEA3E0F52B8E2A8D04
:10138100298C287884E2F50A08E2F50B758A08753C
:101391008B28758C2475881D2088FDE4FFFEFDFCDB
:1013A100AB27AA26A925A824D31203D34006AC242F
:1013B100A8048013AF27AE26AD25AC241203C5AB1C
:1013C10007AA06A905A80490601FE0FEA3E0FFE4B8
:1013D100FCFDC31203D35041E4FFFEFDFCAB27AA81
:1013E10026A925A8241203D34006AF27AE26800BD9
:1013F100AF27AE26AD25AC241203C590601FEEF0D9
:10140100A3EFF09064B5E025E024C7F582E43464ED
:10141100F583E0A3E090601EF090385DE493FE74E4
:101421000193FFD3906020E09F90601FE09E501BCE
:101431009064B5E025E024C7F582E43464F583E0E7
:10144100A3E090601EF090601B8079E4FFFEFDFC3C
:10145100AB27AA26A925A824D31203D3403490642C
:10146100B5E0FF25E024C7F582E43464F583E0FCB0
:10147100A3E0D39400EC9400404DEF25E024C7F5A0
:1014810082E43464F58374FFF5F012026A90601C03
:1014910080329064B5E0FF25E024C7F582E434642E
:1014A100F583E0FCA3E0C3947FEC94005019EF2591
:1014B100E024C7F582E43464F583E475F001120297
:1014C1006A90601D7401F090601CE064017011A3CA
:1014D100E06401700B90601CF0A3F090601B04F0BD
:1014E10090601BE06401703590601EE0FF9064B570
:1014F100E025E024C7F582E43464F583E4F0A3EF4A
:10150100F074FF90601FF0A3F090601E747FF0E410
:0F15110090601CF0A3F090601BF07F01227F0020
:0115200022A8
:102F2F00E49064B4F090385712042C780112040D19
:102F3F009064B6120448AF6112136CEF6022056102
:102F4F00E53730E4095337EF9064B47401F09038EB
:102F5F006CE493FFE561C39F4006E4F561433710CE
:102F6F00C390385B7401939562E49394004008908A
:102F7F0064B4E064017005D21702353BE4FF122BF5
:012F8F007FC2
:012F9000221E
:102B7F00EF70607F01FEFDFC74C12561F582E434C6
:102B8F0064F583E0F9F812040D8F178E168D158CEE
:102B9F0014787EE254FCF2E24514F218E515F218AF
:102BAF00E516F218E517F2E56125E024C7F582E492
:102BBF003464F583E0A3E0547FFF7878E254804FCC
:102BCF00F2787FE254FBF2E254FB4404F2E2440158
:102BDF00F2801CE56125E024C7F582E43464F583B7
:102BEF00E0A3E0547FFF7878E254804FF2787FE2E1
:042BFF004402F22278
:1026E000E49064A2F0A3F09064A2E0FEA3E0FFC334
:1026F0009488EE94035031EF248DFFEE34058F82E1
:10270000F583E493FF9064A3E02421FD9064A2E0AC
:1027100034608D82F583EFF09064A3E004F070C71D
:082720009064A2E004F080BF08
:102728009063A97401F0A37460F0A37421F0E4F538
:1027380061F537F536F535F534C217C218F51FF5CA
:102748001EF51DF51CF533F532F531F530F51BF5A1
:102758001AF519F51890386693FF90386AE493FED5
:10276800A807088002C333D8FCF563756420E4FF2A
:03277800022B7FB2
:102CFF007884E2F50A08E2F50BAE0A7803CEC31327
:102D0F00CE13D8F97802C333CE33CED8F9FFE561AD
:102D1F0025E02400F582E43460F583EEF0A3EFF0B4
:102D2F0020170F90385FE4937005D21702353B02DE
:102D3F002F2F056190386CE493FFE561C39F401F0F
:102D4F00787FE254FBF2E254FB4404F2E24401F2D6
:102D5F00E4F561E53720E2030228AE433701227F15
:052D6F0001122B7F2280
:053AB4000562022C81F7
:1037F900E53730E01A9063A9A3E0FAA3E0F91205CE
:10380900101211B3E4F5617F01122B7F5337FE22A9
:10279500022F91E493A3F8E493A34003F68001F29A
:1027A50008DFF48029E493A3F85407240CC8C33345
:1027B500C4540F4420C8834004F456800146F6DF14
:1027C500E4800B0102040810204080900B1EE47E7B
:1027D500019360BCA3FF543F30E509541FFEE49309
:1027E500A360010ECF54C025E060A840B8E493A3D0
:1027F500FAE493A3F8E493A3C8C582C8CAC583CAFB
:10280500F0A3C8C582C8CAC583CADFE9DEE780BEB2
:010D6500008D
:10006000E709F608DFFA8046E709F208DFFA803E82
:1000700088828C83E709F0A3DFFA8032E309F6086F
:10008000DFFA8078E309F208DFFA807088828C83D7
:10009000E309F0A3DFFA806489828A83E0A3F6088B
:1000A000DFFA805889828A83E0A3F208DFFA804C65
:1000B00080D280FA80C680D4806980F2803380103C
:1000C00080A680EA809A80A880DA80E280CA8033A5
:1000D00089828A83ECFAE493A3C8C582C8CCC5831D
:1000E000CCF0A3C8C582C8CCC583CCDFE9DEE780ED
:1000F0000D89828A83E493A3F608DFF9ECFAA9F06C
:10010000EDFB2289828A83ECFAE0A3C8C582C8CCC1
:10011000C583CCF0A3C8C582C8CCC583CCDFEADEDA
:10012000E880DB89828A83E493A3F208DFF980CC3C
:1001300088F0EF60010E4E60C388F0ED2402B40435
:100140000050B9F582EB2402B4040050AF232345DC
:0601500082239000B07351
:10015600BB010689828A83E0225002E722BBFE02A7
:09016600E32289828A83E49322DA
:10016F00BB010CE58229F582E5833AF583E0225045
:10017F0006E92582F8E622BBFE06E92582F8E2228F
:0D018F00E58229F582E5833AF583E49322A9
:10019C00BB010FF8E58229F582E5833AF583E02867
:1001AC00F0225009C58229F8E58226F622BBFE0909
:1001BC00C58229F8E22582F222F8EA2583F583E943
:0301CC0093282253
:1001CF00BB010689828A83F0225002F722BBFE010F
:0201DF00F32209
:1001E100F8BB010DE58229F582E5833AF583E8F054
:1001F100225006E92582C8F622BBFE05E92582C800
:02020100F222E7
:10020300EF8DF0A4A8F0CF8CF0A428CE8DF0A42E0F
:02021300FE22C9
:10021500BC000BBE0029EF8DF084FFADF022E4CCCD
:10022500F875F008EF2FFFEE33FEEC33FCEE9DEC96
:10023500984005FCEE9DFE0FD5F0E9E4CEFD22EDDC
:10024500F8F5F0EE8420D21CFEADF075F008EF2F26
:10025500FFED33FD4007985006D5F0F222C398FD17
:050265000FD5F0EA22B4
:10026A00C5F0F8A3E028F0C5F0F8E582158270021F
:06027A001583E038F022BC
:0D028000EF2BFFEE3AFEED39FDEC38FC22CD
:0E028D00C3EF9BFFEE9AFEED99FDEC98FC226C
:10029B00E88FF0A4CC8BF0A42CFCE98EF0A42CFC02
:1002AB008AF0EDA42CFCEA8EF0A4CDA8F08BF0A480
:1002BB002DCC3825F0FDE98FF0A42CCD35F0FCEBDF
:1002CB008EF0A4FEA9F0EB8FF0A4CFC5F02ECD39A4
:0F02DB00FEE43CFCEAA42DCE35F0FDE43CFC2211
:1002EA0075F008758200EF2FFFEE33FECD33CDCCCB
:1002FA0033CCC58233C5829BED9AEC99E58298404E
:10030A000CF582EE9BFEED9AFDEC99FC0FD5F0D62A
:10031A00E4CEFBE4CDFAE4CCF9A88222B800C1B954
:10032A000059BA002DEC8BF084CFCECDFCE5F0CB92
:10033A00F97818EF2FFFEE33FEED33FDEC33FCEBCB
:10034A0033FB10D703994004EB99FB0FD8E5E4F986
:10035A00FA227818EF2FFFEE33FEED33FDEC33FC73
:10036A00C933C910D7059BE99A4007EC9BFCE99A67
:10037A00F90FD8E0E4C9FAE4CCFB2275F010EF2FAC
:10038A00FFEE33FEED33FDCC33CCC833C810D707AC
:10039A009BEC9AE899400AED9BFDEC9AFCE899F8E7
:0E03AA000FD5F0DAE4CDFBE4CCFAE4C8F9227A
:0D03B800CFF4CFCEF4CECDF4CDCCF4CC22DA
:0E03C500C3E49FFFE49EFEE49DFDE49CFC2249
:1003D300EB9FF5F0EA9E42F0E99D42F0EC6480C8A1
:0603E30064809845F02241
:1003E900EB9FF5F0EA9E42F0E99D42F0E89C45F06A
:0103F90022E1
:1003FA00E8600FECC313FCED13FDEE13FEEF13FFE1
:03040A00D8F12204
:10040D00E8600FEFC333FFEE33FEED33FDEC33FC4D
:03041D00D8F122F1
:0C042000E0FCA3E0FDA3E0FEA3E0FF224F
:10042C00E493FC740193FD740293FE740393FF2216
:0C043C00E0F8A3E0F9A3E0FAA3E0FB2243
:0C044800ECF0A3EDF0A3EEF0A3EFF02227
:10045400A8828583F0D083D08212046B12046B12BD
:10046400046B12046BE473E493A3C583C5F0C583E2
:10047400C8C582C8F0A3C583C5F0C583C8C582C8F2
:010484002255
:0C048500A42582F582E5F03583F5832282
:09049100E0FBA3E0FAA3E0F9226C
:10049A00F8E0FBA3A3E0F925F0F0E58215827002EB
:0704AA001583E0FA38F0228F
:0904B100EBF0A3EAF0A3E9F0224C
:1004BA00BB010DE58229F582E5833AF583020491B1
:1004CA005007E92582F802056FBBFE07E92582F885
:1004DA00020578E58229F582E5833AF583020581EA
:1004EA00D083D082F8E4937012740193700DA3A3A1
:1004FA0093F8740193F5828883E4737402936860B5
:06050A00EFA3A3A380DFB4
:060510008A838982E47376
:10051600EC8EF0A4CCC5F0CCCDF8EFA4CEC5F02D72
:10052600FDE43CFCE8A42EC8C5F03DFDE43CFCEF30
:0D053600A4FFE5F028FEE43DFDE43CFC22BE
:10054300EF4E6012EF60010EEDBB010B89828A83CF
:10055300F0A3DFFCDEFA2289F05007F709DFFCA9DC
:0C056300F022BBFEFCF309DFFCA9F02233
:09056F00E6FB08E6FA08E6F922B1
:09057800E2FB08E2FA08E2F922B4
:0C058100E493FB740193FA740293F922D6
:00000001FF
