:0300000002201EBD
:10201E00787FE4F6D8FD9060007F007E07E4F0A3A1
:0A202E00DFFCDEFA75816602207304
:0C000300000000000000000000000000F1
:0B321D00EF1FAC0670011E4C70F62283
:1030FC00AB07AA06EB1BAE0270011A4E600C7FAA3E
:0B310C007E0512321D75D9AA80EA2250
:101A1900907120E04480F07F057E0012321DE4FFC2
:101A2900FE1230FC75A75575AC5C9071327450F09C
:101A39009071307403F0907136742FF090715C746A
:101A490003F090715BE054FCF07F18EF2466FDE42D
:101A590034718D82F583E4F00FEFB433EE904011C9
:101A6900E4935407FF90711CE054F84FF09040172D
:101A7900E493547FFF90711DE054804FF090401023
:101A8900E493FF5401C43333335480FE907123E04F
:101A9900547F4EF0EFC313543F4440FFA3E05480FA
:101AA9004FF0904012E493FF540FFE907146E054BA
:101AB900F04EF0EFC4540FFF90714FE054F04FF027
:101AC900904013E493543FFF907140E054C04FF0AD
:101AD900904014E493907126F0904015E49390712E
:0B1AE90028F0904016E49390712AF062
:011AF40022CF
:1030C200000009C4006400C80101F4004B000A00BA
:0E30D20000010F0405020009000A000A000AAE
:10316300E2FE74992FF582E43464F583E02224FCB3
:0831730025E0FDF874030822B9
:10159F00E4FF123165C394085058123165C39404A7
:1015AF00502878C2C0001231631231738002C333E6
:1015BF00D8FCF45ED000F278C2C000123163123151
:1015CF00738002C333D8FC0216CD78C3C00012312A
:1015DF00631231718002C333D8FCF45ED000F2780D
:1015EF00C3C0001231631231718002C333D8FC02C1
:1015FF0016CD123165C394084068123165C394103B
:10160F005060123165C3940C502C78D2C000123147
:10161F006324F81231738002C333D8FCF45ED00018
:10162F00F278D2C00012316324F81231738002C3F2
:10163F0033D8FC0216CD78D3C00012316324F412D4
:10164F0031738002C333D8FCF45ED000F278D3C07C
:10165F000012316324F41231738002C333D8FC02B9
:10166F0016CD123165C39414502B78E2C00012319D
:10167F006324F01231738002C333D8FCF45ED000C0
:10168F00F278E2C00012316324F01231738002C38A
:10169F0033D8FC802978E3C00012316324EC123177
:1016AF00738002C333D8FCF45ED000F278E3C0003D
:1016BF0012316324EC1231738002C333D8FC4ED045
:0B16CF0000F20FEF640260030215A19F
:0116DA0022ED
:03005D00022C234F
:102C2300C0E0C0F0C083C082C0D075D000C000C077
:102C330001C002C003C004C005C006C0077881E21A
:102C430030E607E24440F2122724D007D006D0052D
:102C5300D004D003D002D001D000D0D0D082D08312
:052C6300D0F0D0E032CA
:102AB000D2AF43AB0843B6C0907132E04440F0431C
:102AC000AB087877743FF208744BF2787A7430F27E
:102AD000788914F27871744FF2187427F27872744E
:102AE000A8F2087410F208E4F208F208F2787E7492
:0F2AF000D0F2087404F208741EF2087402F22285
:1021E400E4FBEB25E025E024D8F582E43430F583E4
:1021F400740193FF74992BF582E43464F583EFF052
:10220400EB25E025E024DAF582E43430F583E49329
:10221400FE740193FFEB25E0249BF582E43464F51E
:1022240083EEF0A3EFF0EB25E0249FF582E4346421
:10223400F583E4F0A37441F0E47F01FEFDFC74999E
:102244002B123168F9F812033AE53F4FFFE53E4E91
:10225400FEE53D4DFDE53C4C8F3F8E3E8D3DF53C0E
:102264000BEB640260030221E612159F121F830226
:022274002AB08E
:07323C00E475F001020181BD
:102CAD00E5B154CF42B153A8BFD2AF75D102789CD4
:102CBD00E254E3F2E2441CF2E254FCF2E24401F28B
:102CCD0008E2547FF2E24420F278A17401F2187404
:102CDD0076F2789CE2541FF2E244C0F243A84022FF
:03002100021D615C
:101D6100C0E0C0F0C083C082C0D075D000C000C048
:101D710001C002C003C004C005C006C007789DE2CF
:101D810020E703021E10E24480F23011069063E363
:101D9100E004F09064DA12323C9064BCE0FEA3E00F
:101DA100FFE4FCFD7BFF7AFFF9F8D3120300400644
:101DB1009064BC12323C90642212034DEF2401FF67
:101DC100E43EFEE43DFDE43CFC9064221203759088
:101DD10064D112323CC39064D2E094D09064D1E0DB
:101DE10094074008E4F0A3F09064D0F09064D4121A
:101DF100323CC39064D5E094649064D4E094004094
:101E010008E4F0A3F09064D3F09064BE12323CD0A9
:101E110007D006D005D004D003D002D001D000D025
:0A1E2100D0D082D083D0F0D0E032A0
:07252E00C1154264D6000054
:10000F0012034DEF2401FFE43EFEE43DFDE43CFC12
:01001F0022BE
:102C6800E5B254FC42B253A9FED2AF75D1049071BB
:102C780000E054E3F0E0F0E054FCF0E04401F090B0
:102C880071057409F0907104745FF0907101E0545B
:102C98007FF0E04420F0907100E0541FF0E044C061
:052CA800F043A9012228
:03002400021EDADF
:101EDA00C0E0C0F0C083C082C0D075D000C000C0CE
:0D1EEA0001C002C003C004C005C006C0074F
:0B1EF700907101E030E76AE04480F0E9
:101F02009064D6E475F001120181C39064D7E09425
:101F1200149064D6E094004032E4F0A3F09064C4DC
:101F220012000F9064C4120375E47F587E02FDFC18
:101F32009064C4120369C3120316400F20160C905A
:0B1F420064C412038100000000D216EE
:101F4D0030951620150F9064C012000F9064C012CA
:0B1F5D000375122E25D2158002C2155C
:101F6800D007D006D005D004D003D002D001D000CD
:0B1F7800D0D0D082D083D0F0D0E03277
:102A5D009063E612034D74DC2FF582E43463F58345
:102A6D0022906473E0FF24D9F582E43463F5832268
:102A7D007D00EF75F00FA424ACF9746335F0FA7B8B
:102A8D000122E5822EF582E43583F58322E4F09070
:102A9D0063DFE014F090000F229063E5E4F09063A3
:032AAD00E4F02230
:0A322800E49063E3F0C210D211221B
:0A323200C211E49063E3F0C2102221
:10302D0078C2E2543FF2E254FCF2E24440F2907175
:10303D0081E04404F0907175E04401F043AA20D280
:0B304D00AF75D60175D59F75D211221A
:03004B000216DBBF
:1016DB00C0E0C0F0C083C082C0D075D000C000C0D5
:0D16EB0001C002C003C004C005C006C00756
:1016F800906492E4F0E5D420E5030217E0E5D7F022
:10170800201204E0B4A5099063DFE0C3940340030A
:101718000217DD906492E0B4A508D212122AA6122C
:1017280032289063E5E0B40108906492E09063E4A5
:10173800F0122A5DE060030217E0906492E0FF90E7
:1017480063E61203699063AC75F00FEB1203B2EA1B
:1017580075F00FA42583F583C083C0829063E5E00C
:10176800FE04F0D082D083122A8FEFF09063E3E476
:10177800F0A3E06063E0FFA3E06F705C9063E4E0D7
:10178800FB9063E612034D74D92F122A75EBF0C251
:1017980012122AA6122A5D7401F09063DFE004F0A9
:1017A8009063E612034DEF2401FFE43EFEE43DFDA5
:1017B800E43CFC9063E6120375E47F03FEFDFC90B5
:1017C80063E6120369C3120316400A9063E6120324
:0817D800810000000012323212
:1017E000D007D006D005D004D003D002D001D0005D
:0B17F000D0D0D082D083D0F0D0E03207
:0D31F700E5D430E4FB8FD7E5D430E4FB22B3
:1017FB00E4906473F0A3F0C2189063E3E0D3940A0F
:10180B00400F123232E49063E5F09063E4F0C212C1
:10181B0022E4906473F0906473E0FFC3940340037D
:10182B0002190C74DC2F122A66E070030219039064
:10183B006473E075F00FA424ADF582E43463F58393
:10184B00E0FE74D92F122A75E06E601A906473E073
:10185B0024DC122A66122A9AC083C082122A7DD0F7
:06186B0007D00602041381
:10187100E4906475F0906474F0A3F0122A6EE014A1
:10188100FE906475E0FDC39E5022EF75F00FA42415
:10189100ACF582E43463F583E5822D122A92E0FFF0
:1018A100906474E02FF0A3E004F080CF906474E0C2
:1018B100F0122A6EE0FEEF75F00FA424ABF582E47E
:1018C1003463F583122A8FE0FF906474E06F600245
:0218D100D2182B
:1018D30030181DC218906473E0FF24DC122A6612CC
:1018E3002A9AC083C082122A7DD007D0061204131D
:1018F300906473E024E0F582E43463F5837401F0CB
:09190300906473E004F002182165
:01190C0022B8
:0F004E001201BA90647812037590647802034D22
:1030580078C2E2440CF2786AE24478F27591FF9003
:103068007123E05498F0E0441EF09071227407F048
:07307800439E7043994022C2
:100027005399E0EF24FD700E907123E054D8F0E06F
:100037004459F04399017869E24448F27F017E0010
:030047000230FC88
:10307F007869E24401F2786BE230E1FA7402F2AF60
:10308F0093EF75F010A4FFAEF0E594C4540FFDEF6D
:03309F004DFF22C0
:101AF500E4906476F0A3F0A312038100000000E4F3
:101B050090647CF0A3F074FFA3F0A3F0E4A3F0F0DD
:101B150012307F906476EEF0A3EFF0906480E0C31E
:101B25009402405490647CE0FEA3E0FF906476E06C
:101B3500FCA3E0FDD39FEC9E400890647CECF0A3F1
:101B4500EDF090647EE0FEA3E0FFC3ED9FEC9E50B8
:101B55000F906476E0FFA3E090647ECFF0A3EFF0F2
:101B6500906478120369906476E0FEA3E0FFE4FCDC
:101B7500FD1201ADA3120375906480E004F0E0C38B
:101B85009414408C120057C006C00790647CE0FE98
:101B9500A3E0FBAA06E4F9F8D007D00612004EC070
:101BA50006C00790647EE0FEA3E0FBAA06E4F8D039
:101BB50007D00612004E7804120327906476EEF0E3
:031BC500A3EFF09B
:011BC80022FA
:102FFF00A3F078E3E254FCF2E24401F2907192E420
:10300F00F022906480E004F0E0C3940822C2A4C2CE
:0E301F0096D2977F04FE22FFE0FEA80708224B
:102A0500E4FF78D3E2543FF2E24440F290718DE462
:102A1500F0E254CFF2E24410F290718CE4F01230FF
:102A250001C297C296122947EF702A7D0A7F8C1240
:102A35001E2B7D017F88121E2B7D017F86121E2B8A
:102A4500E4FD7F82121E2BE4FD7F84121E2BE4FD24
:082A55007F80121E2B022B975B
:10311700E4FDEE25E0FEEF30E004EE4401FEEFC3F0
:0931270013FF0DEDB408EBAF0637
:01313000227C
:02280B00AC0718
:10280D00E4906474F0AF05123117EC64816019EC3B
:10281D0064836014EC6485600FEC6487600AEC647B
:08282D00896005EC648D704325
:10283500E4906475F0A3F0EC64816004ECB4830665
:10284500EF547FFF8017EC64856004ECB48706EFD6
:10285500543FFF8008ECB48904EF541FFFEFC454C4
:102865000FFE906475F0EF540FFFA3F0EE75F00ABC
:03287500A42FFF8E
:01287800223D
:05227600906474EFF01C
:10227B00E4A3F0122FFF12301C12321DE49064768F
:10228B00F01222EA906476E0906474123026800299
:10229B00C313D8FC30E004D2A48002C2A47F047E16
:1022AB000012321D1222F440D878E3E254FCF2788B
:1022BB00E0E24410F2E4906476F0906475E025E07F
:1022CB00F01222EA30A407906475E04401F0122268
:0E22DB00F440E7C296C297C2A4906475E0FF7B
:1022E90022C2967F047E0012321D22D2967F047E7E
:0F22F9000012321D906476E004F0E0C3940822D6
:05319200906473EFF0F2
:10319700E4FE122276AE07906473E0FFAD060228C4
:0131A7000B1C
:0823080090647EEFF0A3EDF0FC
:10231000E4122FFF12301C12321DE4906480F01280
:10232000238E906480E090647E1230268002C31376
:10233000D8FC30E004D2A48002C2A412237D123063
:102340001140DCE4906480F012238E906480E0FF02
:1023500090647FE0FEA807088002C313D8FC30E039
:1023600004D2A48002C2A412237D12301140D9C22B
:0C237000967F047E0012321DC297C2A4AA
:10237C00227F047E0012321DD2967F047E00123220
:0C238C001D22C2967F047E0012321D222A
:10294700122B97D390645CE0943390645BE0940817
:102957005048C3A3E094D090645BE09407403B9059
:10296700645DE0D3940C5032E0C39401402CA3E0A3
:10297700D3941F5025E0C39401401FA3E0D39418BC
:102987005018A3E0943C5012A3E0943C500C906480
:102997005BE0B40708A3E0B4D0037F00227F0122E5
:051E2B0090647AEFF065
:101E3000A3EDF0EF6480601D90647AE0FF6482603F
:101E400014EF6484600FEF6486600AEF64886005B5
:051E5000EF648C706CD2
:101E5500E490647CF0A3F090647BE0FFC3940A40B7
:101E650007EF75F00A84A3F090647BE075F00A84AF
:101E7500AFF090647DEFF090647CE0FEC454F04FC9
:101E850090647BF090647AE0FF64806004EFB48234
:101E95000990647BE0547FF0802290647AE0FF64CF
:101EA500846004EFB4860990647BE0543FF0800CB5
:0C1EB50090647AE0B48805A3E0541FF0AC
:101EC100E4FD7F8E12230890647AE0FFA3E0FD1207
:091ED10023087D807F8E022308A6
:102D2D00906473A3E02430FD7F8C121E2B9064758C
:102D3D00E0FD7F88121E2B906476E0FD7F86121ECB
:102D4D002B906477E0FD7F84121E2B906478E0FD5C
:0F2D5D007F82121E2B906479E0FD7F80021E2B77
:102B97007F81123192906461EFF07F8312319290BE
:102BA7006460EFF07F8512319290645FEFF07F876A
:102BB70012319290645EEFF07F8912319290645DDA
:102BC700EFF07F8D123192EF24D0FEE4340790644A
:062BD7005BF0A3CEF0222A
:101BC900C2B178E0E254BFF278E3E254CFF2E244E2
:101BD90010F2907194E4F0229063EAF0A374C5F0D6
:101BE90078EC7C637A6379EA7E007D017B017F0270
:101BF90002013090647E7B017A6379EAE4F0A37490
:101C090002F022E0FF7B0190647EE4F0A37411F0FE
:101C1900229063ECE0FF9063EAE02278FF7C637D29
:101C2900017B017A6379EE22E4F078E3E254CFF2A2
:101C390078E0E24440F22275D9AA7B017A6379EC13
:101C49002212034D906476020375D2B17F047E009F
:101C590022EF75F020A4FFE5F0F0A3EFF022E47580
:101C6900F0010201819063EDE064C52212037590D1
:101C7900645302034D12037590645702034D906437
:0D1C89007602034DEEF0A3EFF0A30203DEA0
:1031A800121BFCE4FF122F02121C4090647E121CBA
:0631B800057F01022F0259
:1031310090647E121BFFE4FF122F37121C40906433
:093141007E121C057F01022F37EC
:102426001231319063EBE064C5600D121C6E6008DA
:102436007402121BE10224A69063EBE0B4C5079078
:1024460063EDE0B4C50D9063EBE064C56035121C26
:102456006E70309063EBE0B4C510121BE9121C439A
:1024660090647E121C057F018016121C6E703478F3
:10247600EA7C637A6379ECFE121BF3121BFCE4FF21
:10248600022F02121C1AD39F4007E09063ECF080E3
:102496000F121C1AC39F500B9063ECE09063EAF096
:0424A6001231A82225
:102D6C0090600E74FFF0E490600CF0A3F090600C97
:102D7C00E0FEA3E0FF7B017A60790E906487E4F0BB
:102D8C00A304F01226ADEF600575D9AA80DF906020
:0D2D9C000C121C67C390600CE0941040D036
:012DA9002207
:10111000E4906475F0123131121C1AB50702800C8C
:10112000121C1AD39F400280039063ECE090647518
:10113000F0906475E020E009906473F004A3F080FF
:101140000D906475E0FE14906473F0A3EEF090646B
:10115000737A6379EE121C0C122F379064747A63E1
:1011600079FF121C0C122F379063FEE064C5602ECD
:101170009063FA120381000000009063EE12038175
:10118000000000009063F2120381000000009063F1
:10119000F6120381000000009063FE74C5F09064B5
:1011A0000FE064C5600A121C247E007F111201301A
:1011B0009063FF12034D9063EE120369C31203168E
:1011C00090644F502912034D9063FF121C75906478
:1011D00003121C7E90640712037590640B121C4A64
:1011E00078EE7C637D017B017A6379FF801E1203B8
:1011F0004D9063EE121C759063F2121C7E9063F6A4
:101200001203759063FA121C4A121C247E007F118F
:10121000120130121C87EF2401FFE43EFEE43DFD85
:10122000E43CFC121C4D121C879063FA12037512E9
:101230001C8790640B1203757FE07E937D047C0015
:10124000906476120369D31203164030906474E000
:1012500004906473F0E0FE04A3F0EE947E400990E5
:101260006473747EF0A304F09063FA1203810000AB
:10127000000090640B12038100000000906473E092
:10128000FF121C2A90647E121C13122F02906474A9
:10129000E0FF7B017A6379FF90647E121C13122FAA
:1012A000029063EAE0FF906473E0FE6F6007EE1265
:0512B0001BE11231A852
:0112B5002216
:10314A00121BCBD2A6D2B17F04FE12321DC2A67FB9
:09315A00047E0012321DC2B122F4
:1030E000121BCBC2B1C2A67F04FE12321D121C53AA
:0C30F00012321DD2A67F047E0002321DA9
:102E9600906489121C31D2A67F047E0012321DD2A4
:102EA600B1801530A61B906489E004F0E0D394FA53
:102EB60040061230E07F01227F047E0012321D8020
:052EC600E2C2B17F0033
:012ECB0022E4
:1031BE00121BC9C2A67F04FE12321D121C531232FC
:0431CE001DC2B1224B
:1031D200121BC9D2A67F04FE12321D121C531232D8
:0431E2001DC2B12237
:052BDD00906489EFF097
:102BE200121BCBC2B190648AF0906489E0FF5480DA
:102BF200C4131313540124FF92A6EF25E0F07F04BF
:102C02007E0012321D121C5312321DC2B17F047E8D
:102C12000012321D90648AE004F0E0C3940840C9B7
:012C2200228F
:052AFF00906489EFF076
:102B040090648B121C31E490648AF0C2B17F047E1D
:102B14000012321DD2B190648BE025E0F030A603A0
:102B2400E004F07F047E0012321D90648AE004F019
:102B3400E0C3940840D5906489E070051231D280D6
:092B4400031231BE90648BE0FF26
:012B4D002265
:10239800906482121C8D12314A7FA0122BDD122EFE
:1023A80096EF60037F012290648212241C60037FF1
:1023B8000122906482A312241C60037F01227F04FF
:1023C8007E0012321D12314A7FA1122BDD122E9689
:1023D800EF60207F0122906487E07002A3E0601F15
:1023E8007F01122AFF906484E475F0011203C7EF9D
:1023F80012016F90648774FFF5F012018180D7E4B1
:10240800FF122AFF9064841203BEEF12016F12308C
:0E241800E07F0022E0FF122BDD122E96EF2255
:1026AD00906482121C8D12314A7FA0122BDD122EE6
:1026BD0096EF60037F012290648212271A60037FD8
:1026CD000122906482A312271A60037F0122906475
:1026DD008774FFF5F012019745F060249064841221
:1026ED0003BE120156FF122BDD122E96EF60037FF3
:1026FD000122906482121C67906485121C6780CE43
:10270D007F047E0012321D1230E07F0022E0FF12A6
:07271D002BDD122E96EF22C6
:062F020090647B1203DE67
:102F0800906480121C5A906480E0FEA3E0FF9064F5
:102F18007B1203BE90647EE0FDA3E0906487CDF051
:0E2F2800A3EDF01226ADEF600575D9AA80D892
:012F36002278
:062F370090647B1203DE32
:102F3D00906480121C5A906480E0FEA3E0FF9064C0
:102F4D007B1203BE90647EE0FDA3E0906487CDF01C
:0E2F5D00A3EDF0122398EF600575D9AA80D875
:012F6B002243
:10317B00D2A6D2B178F2E254F3F2E24404F29071A7
:07318B0097E4F0121BD122B2
:102F9E0078E2E2543FF2E24440F2907191E0F01296
:102FAE00302D122F6C122CAD123204123058122A00
:102FBE0005122C6812317B1229A77F017E00023088
:012FCE00FC06
:102E5E00121A1975D95590715EE054FEF075D9BBF2
:102E6E00122F9ED2A37FE87E031230FCC2A375D927
:102E7E00AA122799121C9612190D1220B81217FBBE
:082E8E00121439120BD680E684
:102ECC0090641012034D90644F12037590641412A9
:102EDC00034D90645312037590641812034D906463
:102EEC0057020375E0FF7B017A64791090647EE4ED
:062EFC00F0A37411F022A6
:1029A7001224269063EAE0906473F0122EF0122F3F
:1029B70037906420E0B4C50F122ECC90644F1203F9
:1029C7004D906474120375906473E020E00404F082
:1029D7008006906473E014F0906473122EF0122F47
:1029E70037906420E0B4C51590641012034D9064CD
:0D29F70074120369C31203165003122ECC94
:012A040022AF
:0332480002111060
:102DAA00FEE02FFFEC3EFEA3E02FFFEC3EFE22FAF0
:102DBA0012034D7E00EB2FFFEE3AFE3395E0FDFC49
:102DCA00221203277E00906473E022FC906478024A
:0E2DDA00037590647802034D90647402034DFB
:0509D000906473EFF0DC
:1009D500906478120381000000007FA51231F712A0
:1009E5002DDCEF24A5FFE43EFEE43DFDE43C122DA5
:1009F500D5906473E0FF64016032EF6402602DEF0F
:100A050064036028EF64046023EF6405601EEF64EF
:100A1500066019EF64096014EF640A600FEF641152
:100A2500600AEF64126005EF641370207F05120BF6
:100A3500B0120BC2C000122DE2122DCE2405FDE42A
:100A450033CD2FFFEE3D122DC4020B7A906473E077
:100A5500FF6407600AEF64086005EF641070337F78
:100A6500061231F7906473E0FF120B98120BC2C0A7
:100A750000C002C003122DE27808122DCB2406FD1A
:100A8500E433CD2FFBEE3DA3122DB9D003D00202E6
:100A95000B7A906473E0FF640B600FEF640C600ADF
:100AA500EF64146005EF640D70467F07120BB07894
:100AB50010120327120B98120BCCC000C002C00302
:100AC500122DE27810122DCB2407FDE433CD2FFB38
:100AD500EE3DFAA312034D78081203277E00EB2F93
:100AE500FBEE3A906474122DB9D003D002020B7A52
:100AF500906473E0640E6003020B827F0B1231F782
:100B05007F0E1231F790645BE0FF1231F790645B62
:100B1500E0A3E0FF1231F790645DE0FF1231F7903A
:100B2500645EE0FF1231F790645FE0FF1231F790E9
:100B35006460E0FF1231F7906461E0FF120BCCC0F6
:100B450000C001C002C00390645BE02419FFE433D8
:100B5500FEE0A3E07C002FFFEC3E90645D122DAA21
:100B6500A3E02FFFEC3EA3122DAA3395E0FDFCD0A8
:100B750003D002D001D0001201AD122DD6122DDC0A
:100B8500E4FEFD122DD5122DDC1231F77F017E001A
:030B95000230FC2F
:100B98001231F790647412034D780812032712314A
:100BA800F790647412034D221231F7906473E0FFDA
:100BB8001231F790647412034D221231F790647861
:0E0BC800120369221231F79064781203692239
:102F6C0078E3E2543FF278F2E254FCF278D3E25484
:102F7C00FCF218E2543FF2E254FCF278C3E2543F04
:102F8C00F2E254CFF278E2E254FCF278E0E244014F
:022F9C00F2221F
:10279900C39064DBE094C89064DAE094004062E49A
:1027A900F0A3F020860690646AF0804020870890A4
:1027B900646A7401F0803520900890646A7402F0AC
:1027C900802A20930890646A7403F0801F2094087B
:1027D90090646A7404F0801420B00890646A7405E7
:1027E900F0800920A70690646A7406F0D20120A03F
:1027F9000790647174018004E4906471F0A3F0D2CD
:022809000622A5
:10253500C1164464C0000000004464C400000000EB
:0E2545004464C8000000004464CC00000000A4
:0C3211001203690201ADE4FDFC02036938
:0D32040078D3E254F3F278D0E24420F222B5
:102E25009064C812034D9064C41232119064C812A4
:102E350003759064C4120381000000009064CC12F5
:102E4500034D9064C01232119064CC1203759064E6
:092E5500C01203810000000022FC
:101C96009064731203810000000090647712038140
:101CA600000000007FF47E019064C8123217C31250
:101CB60003165006201603021D607F2E7E049064D4
:101CC600CC1232171201C8E47B03FAF9F812025358
:101CD60090647712037530160C90647312038100BA
:101CE6000000008027E47F24FEFDFC906477120349
:101CF600691201C8E47B0AFAF9F81202539064C823
:101D06001203691202539064731203759064B81239
:101D1600034D9064771232119064B8120375906483
:101D2600CC120381000000009064C81203810000F9
:101D36000000C21690647312034D906466EEF0A321
:101D4600EFF0D3906467E094E7906466E094034014
:0A1D5600077403F0A374E7F0D20451
:011D60002260
:042553004164AB0034
:102FCF0012034DEF2401FFE43EFEE43DFDE43CFC23
:102FDF002212034D1201BAE47B64FAF9F8C302031B
:102FEF00167F7F7E967D987C00120369C3020316BD
:10190D00C39064BDE094E89064BCE09403400F3054
:10191D00170C123248C217E49064BCF0A3F0E47FB8
:10192D00E87E03FDFC9064B8122FF840717F187E9D
:10193D00C67D9A7C3B90644F122FF8500C90644FEB
:10194D00122FCF90644F120375906453122FF050E5
:10195D000C906453122FCF906453120375906457FB
:10196D00122FF0500C906457122FCF906457120322
:10197D00759064B812034DC3EF94E8FFEE9403FE27
:0E198D00ED9400FDEC9400FC9064B81203751C
:10199B009064ABE004F0E0C3940A4004E4F0D21787
:1019AB009064AC12036990644F122FE0500E906458
:1019BB004F12034D9064AC120375D2089064B012B1
:1019CB000369906453122FE0500E90645312034D31
:1019DB009064B0120375D2099064B41203699064D9
:1019EB0057122FE0500E90645712034D9064B412AF
:1019FB000375D20AC39064BFE094889064BEE094F0
:0D1A0B0013400AE4F0A3F0D208D209D20A79
:011A180022AB
:102CED00906453E47B64FAF9F812034D1202539089
:102CFD00647402037590646AE0FFE4FCFDFE2290AB
:102D0D006466E0FEA3E0FFE4FCFD22E47BE87A03C9
:102D1D00F9F890644F22906473E0FF75F00FA422D0
:10143900E4906473F0F0906473E0FFC39403400395
:1014490002159E74E02FF582E43463F583E070039E
:10145900021595906473E0FB75F00FA424AEF58234
:10146900E43463F583E01203E7148E8014938B143C
:10147900988C14A28E149D94153698153A99153E98
:101489009A00001540D200021540D208021540D238
:1014990009021540D20A021540D20BEB75F00FA4D0
:1014A90024AFF582E43463F583122D05780812031D
:1014B9003AEB75F00FA424B0F582E43463F583E0C8
:1014C9007C002FFFEC3E90645BF0A3EFF0122D231C
:1014D90024B1F582E43463F583E090645DF0EF753F
:1014E900F00FA424B2F582E43463F583E090645EDE
:1014F900F0122D2324B3F582E43463F583E090647C
:101509005FF0EF75F00FA424B4F582E43463F5833A
:10151900E0906460F0906473E075F00FA424B5F571
:1015290082E43463F583E0906461F0800AD20D802F
:1015390006D20E8002D20F9063DFE0D394004003FD
:10154900E014F0906473E0FF24E0F582E43463F57D
:1015590083E4F074D92FF582E43463F583E4F074FD
:10156900DC2FF582E43463F583E4F0FE7F0FC006D7
:10157900C007FD906473E075F00FA424ACF974639F
:1015890035F0FA7B01D007D006120413906473E09A
:0515990004F002143F04
:01159E00222A
:100BD600200003020C67C2009064D0E06003020CA0
:100BE6006704F0122D02122CFC7F011209D09064CA
:100BF6006B122D05122CFC7F021209D09064621232
:100C0600034D122CFC7F071209D0122D0C122CFC5E
:100C16007F081209D090646D122D05122CFC7F09F5
:100C26001209D0122D18122CF67F0B1209D0122C95
:100C3600ED7F0C1209D0122B979064741203810079
:100C46000000007F0E1209D0906468122D0F122C3E
:100C5600FC7F101209D0906457122CF07F141209F1
:100C6600D030010DC201122D02122CFC7F01120997
:100C7600D0300210C20290646B122D05122CFC7F3C
:100C8600021209D0300310C20390646212034D129F
:100C96002CFC7F071209D030040DC204122D0C1251
:100CA6002CFC7F081209D0300510C20590646D1225
:100CB6002D05122CFC7F091209D030061EC20690A3
:100CC6006471122D05122CFC7F121209D0906472E9
:100CD600122D05122CFC7F131209D030080DC20804
:100CE600122D18122CF67F0B1209D030090AC209F0
:100CF600122CED7F0C1209D0300A13C20AE47B6471
:100D0600FAF9F8906457122CF67F141209D0300BBA
:100D160023C20B9064D3E0701B78737C647D017BE7
:100D2600017A64795BFE7F07120130122D2D9064E3
:100D3600D37401F0300C10C20C906468122D0F129F
:100D46002CFC7F101209D0300D19C20D90644F1281
:100D56000381000000009064B812038100000000C7
:100D6600123248300E19C20E9064531203810000ED
:100D760000009064B812038100000000123248306F
:100D86000F19C20F9064571203810000000090648F
:0C0D9600B8120381000000001232482255
:102557004464220000000060286426000000000098
:102567000000000000000000000000000000000064
:102577000000000000000000000000000000000054
:0B25870000000041644E004164210090
:102B4E00FFEE34F8FEE434FFFDE434FFFCE4FAF962
:102B5E00F81201C8E422906476E0FEA3E0FF22FAA8
:102B6E00F9F8120253AD07C322FEE434FFFDE4343C
:102B7E00FFFCE42225E02426F582E43464F583226A
:092B8E00FDFC120369C3020316E9
:04287900AB07AA06F9
:10287D00E4906476F0A312038100000000AE02AF75
:10288D000390644EE0FD04F0ED122B82EEF0A3EF09
:10289D00F090644EE0C394144002E4F0E49064764A
:1028AD00F0906477120369906476E0122B82E0FE5B
:1028BD00A3E0FFE4FCFD1201AD9064771203759067
:1028CD006476E004F0E0B414D8E47B14FAF9F890DF
:0828DD00647712034D0202535F
:1031E600E4FDED122B82EEF0A3EFF00DEDB414F238
:0131F60022B6
:0812B600906476EEF0A3EFF066
:1012BE00E4FDC3EF940BEE940E500A122B6494F4DB
:1012CE00EE940150057DFF021436D3EF9495EE9403
:1012DE000B4005E4FD021436D3EF944DEE94065008
:1012EE00057D64021436D3EF9495EE940B5028EFDF
:1012FE009439EE940A4020122B64EF24C7FFEE348B
:10130E00F5122B777B12122B5C7B5C7A01122B6E03
:10131E0074129DFD021436122B64D39439EE940A86
:10132E005031EF943BEE94094029906476A3EF245C
:10133E00C5FFEE34F6122B777B22122B5C7BFE124E
:10134E002B6D74229DFDC3941240030214367D1240
:10135E00021436122B64D3943BEE94095031EF9461
:10136E007CEE94084029906476A3EF2484FFEE343B
:10137E00F7122B777B33122B5C7BBF122B6D7433E2
:10138E009DFDC3942240030214367D2202143612B0
:10139E002B64D3947CEE94085027EF94F0EE9407D0
:1013AE00401F906476A3EF24107B44122B4E7B8C4F
:1013BE00122B6D74449DFDC39433506C7D33021417
:1013CE0036122B64D394F0EE94075026EF941AEE57
:1013DE009407401E906476A3EF24E67B54122B4EA6
:1013EE007BD6122B6D74549DFDC39444503A7D44AC
:1013FE008036122B64D3941AEE9407502BEF944D33
:10140E00EE94064023906476A3EF24B3FFEE34F9F6
:10141E00122B777B64122B5C7BCD122B6D74649D2B
:0A142E00FDC3945450027D54AF0535
:011438002291
:1020B800E4906473F0A3F0A3F07F031200271221C9
:0C20C80045122879906474EEF0A3EFF04C
:1020D400906421E070327FF47E01A3122B8E40289D
:1020E400906422120381000000001221451231E69F
:1020F4009064D8E0FEA3E0FF906474EEF0A3EFF0E8
:0821040012212F90642104F068
:10210C00E47FE87E03906422122B8E4015906422AB
:10211C0012038100000000906474E0FEA3E0FF1243
:02212C00212F61
:10212E00221212B6906473EFF090646DF0E4906436
:10213E0074F0A3F0D20522121AF59064D8EEF0A333
:03214E00EFF0228D
:1025920041601801426019000041601B0041601C4B
:0E25A2000041601D0041601E7F42601FFFFF70
:102DE800E4F561AE3EAD3DAC3C853F178E168D15C2
:102DF8008C14787EE254FCF2E24514F218E515F2E0
:102E080018E516F218E517F2787FE254FBF2E2545F
:0D2E1800FB4404F2E24401F27F010224AA0F
:10077E0090600FEFF0E0FF2495F582E43464F5838A
:10078E00E004F074972FF582E43464F583E4F0749A
:10079E00952FF582E43464F583E0C395635003022C
:1007AE0009CF90600FE0FB2495F582E43464F58365
:1007BE00E4F09030D393640160030209807F01FE60
:1007CE00FDFC74992BF582E43464F583E0F9F8129C
:1007DE00033AE51F4FF51FE51E4EF51EE51D4DF5BF
:1007EE001DE51C4CF51CAF1FAE1EAD1DFC78011295
:1007FE000327EF5455FBEE5455FAED5455F9EC54CE
:10080E0055F8C3E51F9BF53BE51E9AF53AE51D9994
:10081E00F539E51C98F538AF3BAE3AAD39FC7802A8
:10082E00120327EF5433FBEE5433FAED5433F9EC45
:10083E005433F8E53B5433FFE53A5433FEE539546F
:10084E0033FDE5385433FCEB2FF53BEA3EF53AE940
:10085E003DF539E83CF538AF3BAE3AAD39FC78049E
:10086E00120327EF253BFFEE353AFEED3539FDEC51
:10087E003538FCEF540FF53BEE540FF53AED540FAF
:10088E00F539EC540FF538AF3BAE3AAD39FC78087C
:10089E00120327EF253BFFEE353AED3539FDEC35EA
:1008AE0038EFF53BE4F53AEDF539E4F538AE3AAC10
:1008BE00387810120327EF253BFFEE353AFEEFF5A1
:1008CE003BEEF53AE4F539F53890600FE025E0247B
:1008DE00A3F582E43464F583E0FEA3E0D39553EEF2
:1008EE009552402490600FE0FF25E024A3F582E4AA
:1008FE003464F583E0F552A3E0F55374992FF58235
:10090E00E43464F583E0F5649030D3E493FFE4FCC3
:10091E00FDFEAB3BAA3AA939A838D31203164052B2
:10092E00AF650565D3EF940374809480500302097C
:10093E00CFE4F565F51FF51EF51DF51C7F01FEFDD7
:10094E00FCA964A80112033A8F1B8E1A8D198C18FC
:10095E00E47F01FEFDFCA80112033A8F338E328D27
:10096E00318C30E4F552F5537564201225B14337BE
:10097E000222E4F5657F01FEFDFC90600FE0FB2492
:10098E0099F582E43464F583E0F9F812033AE51B35
:10099E004FF51BE51A4EF51AE5194DF519E5184CEC
:1009AE00F518E47F01FEFDFCA80312033AE5334F70
:1009BE00F533E5324EF532E5314DF531E5304CF596
:0209CE003022D5
:10043F00E4F5669030D7E493FFE566C39F4003026F
:10044F00077DE56625E02400F582E4346085828A25
:10045F007F548F8B7E0E8E8C758903758889E56628
:10046F0025E02400F582E4346085828A8F8B758CB9
:10047F0012758904758889E56625E02408F582E4FC
:10048F003460F583E0FCA3E0C3950FEC950E502E7E
:10049F00E56625E02414F582E43460F583E0FCA3DF
:1004AF00E0C39513EC95125015AF600560EF940201
:1004BF0074809480400BE4F5605337FD8003E4F5BE
:1004CF0060E53730E125E56625E024A3F582E434C5
:1004DF0064F583E4F0A3F0E56625E024A7F582E454
:1004EF003464F583E4F0A3F002058DE56625E0247E
:1004FF0008F582E4346085828A8E8B758C0A758943
:10050F00267588892088FDE5F130E00875F107E44C
:10051F00F50AF50BAE0AE50B7802C333CE33CED80E
:10052F00F9FFE56625E024A3F582E43464F583EE54
:10053F00F0A3EFF0E56625E02414F582E43460853E
:10054F00828A758B12758C0A758927758889208820
:10055F00FDE5F130E00875F107E4F50AF50BAE0A99
:10056F00E50B7802C333CE33CED8F9FFE56625E02D
:10057F0024A7F582E43464F583EEF0A3EFF0E5668B
:10058F0025E0249BF582E43464F583E0FEA3E07854
:10059F0002CEC313CE13D8F9F5518E50E56625E080
:1005AF0024A3F582E43464F583E0FEA3E0FF9030EA
:1005BF00CFE493FC740193FDC3EF9DEE9C4017E5D0
:1005CF006625E024A7F582E43464F583E0FEA3E01A
:1005DF00C39DEE9C50028068E56625E024A3F5825A
:1005EF00E43464F583E0FEA3E0C39551EE955040EB
:1005FF001CE56625E024A7F582E43464F583E0FE6C
:10060F00A3E0C39551EE95504003020699749325CC
:10061F0066F582E43464F583E004F074932566F59F
:10062F0082E43464F583E0FF9030D4E493FEEFD39B
:10063F009E406474932566F582E43464F583E4F098
:10064F00E56625E02404F582E43460F583E0FEA33B
:10065F00E0FFE56625E02408F582E43460F583EEDB
:10066F00F0A3EFF0E56625E02410F582E43460F5A1
:10067F0083E0FEA3E0FFE56625E02414F582E43471
:10068F0060F583EEF0A3EFF0800D74932566F5828D
:10069F00E43464F583E4F0E56625E02404F582E4B0
:1006AF00346085828AE56625E02400F582E43460B3
:1006BF0085828B758C0A7589207588CB2088FDE51E
:1006CF00F130E00875F107E4F50AF50BE56625E072
:1006DF002404F582E4346085828A758B547F0E8FF3
:1006EF008C7589237588897E0A8E8A8F8BE566259E
:1006FF00E02404F582E4346085828CE4F589758802
:10070F0029E56625E02410F582E4346085828AE5C8
:10071F006625E02400F582E4346085828B8E8C752B
:10072F0089207588CB2088FDE5F130E00875F10749
:10073F00E4F50AF50BE56625E02410F582E4346054
:10074F0085828A758B547F0E8F8C75892475888965
:10075F00758A0A8F8BE56625E02410F582E43460F4
:0F076F0085828CE4F5897588290566020442228B
:100DA200E4F5669030D7E493FFE566C39F40030203
:100DB2000F5AE56625E0249BF582E43464F583E06E
:100DC200FEA3E07802CEC313CE13D8F9F5518E50AC
:100DD200E56625E024A3F582E43464F583E0FEA30E
:100DE200E0D39551EE9550402EE56625E024A7F517
:100DF20082E43464F583E0FEA3E0D39551EE95508E
:100E0200401574972566F582E43464F583E4F0AF07
:100E12006612077E020F559030D6E493FFC3E55168
:100E22009FFFE5509400FED3EF9400EE9400400241
:100E320080047E007F00E56625E024A3F582E43489
:100E420064F583E0FCA3E0C39FEC9E4003020F48DD
:100E52009030D6E493FFC3E5519FFFE5509400FE26
:100E6200D3EF9400EE9400400280047E007F00E500
:100E72006625E024A7F582E43464F583E0FCA3E070
:100E8200C39FEC9E4003020F4874952566F582E4E9
:100E92003464F583E4F074972566F582E43464F5EE
:100EA20083E004F074972566F582E43464F583E008
:100EB200C395635003020F5574972566F582E43497
:100EC20064F583E4F07F01FEFDFC74992566F582EA
:100ED200E43464F583E0F9F812033A1202E5E51FFF
:100EE2005FF51FE51E5EF51EE51D5DF51DE51C5C4B
:100EF200F51CE47F01FEFDFCA966A80112033A126B
:100F020002E5E5335FF533E5325EF532E5315DF555
:100F120031E5305CF530E47F01FEFDFC7499256615
:100F2200F582E43464F583E0F9F812033A1202E53B
:100F3200E51B5FF51BE51A5EF51AE5195DF519E586
:100F4200185CF518800D74972566F582E43464F513
:090F520083E4F00566020DA522FE
:1025B100E4F5669030D7E493FFE566C39F506EE57E
:1025C1006625E024A3F582E43464F583E4F0A3F006
:1025D100E56625E024A7F582E43464F583E4F0A3FD
:1025E100F0E56625E02404F582E43460F583E0FE3D
:1025F100A3E0FFE56625E02408F582E43460F58375
:10260100EEF0A3EFF0E56625E02410F582E43460F6
:10261100F583E0FEA3E0FFE56625E02414F582E4FE
:0E2621003460F583EEF0A3EFF00566808622AC
:10215100E4F5669030D7E493FFE566C39F5067903E
:102161006018E0FF7E00C39410748094805053EF98
:102171009408748094804025E56625E02400F5826A
:10218100E43460F583E0FEA3E0FFE56625E0240486
:10219100F582E43460F583EE8FF0120181E5662566
:1021A100E02400F582E43460F583E0FEA3E0FFE57E
:1021B1006625E02410F582E43460F583EE8FF01299
:1021C10001810566808D906018E0C394107480943D
:1021D1008040054337048006906018E004F07F01D9
:0321E1000224AA2B
:10262F00E4FFFEFDFCAB1BAA1AA919A818C31203DD
:10263F0016606390601AE004F07006906019E00471
:10264F00F09030CBE493FE740193FF4E602ED39045
:10265F00601AE09F906019E09E4021E4F0A3F0F52E
:10266F001FF51EF51DF51CF533F532F531F530F577
:10267F001BF51AF519F518C2140225B19030CDE4E7
:10268F0093FE740193FFD390601AE09F906019E05E
:0D269F009E400AD21422E4906019F0A3F0CE
:0126AC00220B
:050F5B0090648DEFF031
:100F6000A3E0FCA3E0FDA3E0FEA3E0F52B8E2A8D19
:100F7000298C287884E2F50A08E2F50B758A087551
:100F80008B28758C2475881D2088FDE4FFFEFDFCF0
:100F9000AB27AA26A925A824D31203004006AC2417
:100FA000A8048013AF27AE26AD25AC241202F2AB05
:100FB00007AA06A905A80490601FE0FEA3E0FFE4CD
:100FC000FCFDC31203005041E4FFFEFDFCAB27AA69
:100FD00026A925A8241203004006AF27AE26800BC1
:100FE000AF27AE26AD25AC241202F290601FEEF0C2
:100FF000A3EFF090648DE025E0249FF582E4346453
:10100000F583E0A3E090601EF09030C8E493FE7496
:101010000193FFD3906020E09F90601FE09E501BE3
:1010200090648DE025E0249FF582E43464F583E04C
:10103000A3E090601EF090601B8079E4FFFEFDFC51
:10104000AB27AA26A925A824D31203004034906414
:101050008DE0FF25E0249FF582E43464F583E0FC15
:10106000A3E0D39400EC9400404DEF25E0249FF5DD
:1010700082E43464F58374FFF5F012018190601C02
:10108000803290648DE0FF25E0249FF582E4346493
:10109000F583E0FCA3E0C3947FEC94005019EF25A6
:1010A000E0249FF582E43464F583E475F0011201D5
:1010B0008190601D7401F090601CE064017011A3C8
:1010C000E06401700B90601CF0A3F090601B04F0D2
:1010D00090601BE06401703590601EE0FF90648DAD
:1010E000E025E0249FF582E43464F583E4F0A3EF87
:1010F000F074FF90601FF0A3F090601E747FF0E426
:0F11000090601CF0A3F090601BF07F01227F0035
:01110F0022BD
:1028E500E490648CF09030C2120359780112033AD7
:1028F50090648E120375AF61120F5BEF6022056164
:10290500E53730E4095337EF90648C7401F090306B
:10291500D7E493FFE561C39F4006E4F561433710B3
:10292500C39030C67401939562E493940040089077
:10293500648CE064017005D213022DE8E4FF1224D3
:01294500AAE7
:01294600226E
:1024AA00EF70607F01FEFDFC74992561F582E434CA
:1024BA0064F583E0F9F812033A8F178E168D158C9E
:1024CA0014787EE254FCF2E24514F218E515F2188B
:1024DA00E516F218E517F2E56125E0249FF582E496
:1024EA003464F583E0A3E0547FFF7878E254804FA8
:1024FA00F2787FE254FBF2E254FB4404F2E2440134
:10250A00F2801CE56125E0249FF582E43464F583BA
:10251A00E0A3E0547FFF7878E254804FF2787FE2BC
:04252A004402F22253
:101F8300E49064DCF0A3F09064DCE0FEA3E0FFC324
:101F93009488EE94035031EF243FFFEE34048F8294
:101FA300F583E493FF9064DDE02421FD9064DCE09D
:101FB30034608D82F583EFF09064DDE004F070C748
:081FC3009064DCE004F080BF33
:101FCB009063A97401F0A37460F0A37421F0E4F59D
:101FDB0061F537F536F535F534C213C214F51FF537
:101FEB001EF51DF51CF533F532F531F530F51BF506
:101FFB001AF519F5189030D193FF9030D5E493FE74
:10200B00A807088002C333D8FCF563756420E4FF8E
:03201B000224AAF2
:102724007884E2F50A08E2F50BAE0A7803CEC31307
:10273400CE13D8F97802C333CE33CED8F9FFE5618E
:1027440025E02400F582E43460F583EEF0A3EFF095
:1027540020130F9030CAE4937005D213022DE802BF
:1027640028E505619030D7E493FFE561C39F401FDE
:10277400787FE254FBF2E254FB4404F2E24401F2B7
:10278400E4F561E53720E203022151433701227F5A
:05279400011224AA223D
:05324300056202262FC8
:1030A200E53730E01A9063A9A3E0FAA3E0F912042D
:1030B2000D120DA2E4F5617F011224AA5337FE22FC
:10203800022E5EE493A3F8E493A34003F68001F232
:1020480008DFF48029E493A3F85407240CC8C333A9
:10205800C4540F4420C8834004F456800146F6DF78
:10206800E4800B010204081020408090252EE47EB5
:10207800019360BCA3FF543F30E509541FFEE4936D
:10208800A360010ECF54C025E060A840B8E493A334
:10209800FAE493A3F8E493A3C8C582C8CAC583CA5F
:1020A800F0A3C8C582C8CAC583CADFE9DEE780BE17
:0125B000002A
:10006000E709F608DFFA8046E709F208DFFA803E82
:1000700088828C83E709F0A3DFFA8032E309F6086F
:10008000DFFA8078E309F208DFFA807088828C83D7
:10009000E309F0A3DFFA806489828A83E0A3F6088B
:1000A000DFFA805889828A83E0A3F208DFFA804C65
:1000B00080D280FA80C680D4806980F2803380103C
:1000C00080A680EA809A80A880DA80E280CA8033A5
:1000D00089828A83ECFAE493A3C8C582C8CCC5831D
:1000E000CCF0A3C8C582C8CCC583CCDFE9DEE780ED
:1000F0000D89828A83E493A3F608DFF9ECFAA9F06C
:10010000EDFB2289828A83ECFAE0A3C8C582C8CCC1
:10011000C583CCF0A3C8C582C8CCC583CCDFEADEDA
:10012000E880DB89828A83E493A3F208DFF980CC3C
:1001300088F0EF60010E4E60C388F0ED2402B40435
:100140000050B9F582EB2402B4040050AF232345DC
:0601500082239000B07351
:10015600BB010689828A83E0225002E722BBFE02A7
:09016600E32289828A83E49322DA
:10016F00BB010689828A83F0225002F722BBFE016F
:02017F00F32269
:10018100C5F0F8A3E028F0C5F0F8E5821582700209
:060191001583E038F022A6
:10019700A3F8E0C5F025F0F0E5821582700215831B
:0601A700E0C838F0E82278
:0D01AD00EF2BFFEE3AFEED39FDEC38FC22A1
:0E01BA00C3EF9BFFEE9AFEED99FDEC98FC2240
:1001C800E88FF0A4CC8BF0A42CFCE98EF0A42CFCD6
:1001D8008AF0EDA42CFCEA8EF0A4CDA8F08BF0A454
:1001E8002DCC3825F0FDE98FF0A42CCD35F0FCEBB3
:1001F8008EF0A4FEA9F0EB8FF0A4CFC5F02ECD3978
:0F020800FEE43CFCEAA42DCE35F0FDE43CFC22E4
:1002170075F008758200EF2FFFEE33FECD33CDCC9E
:1002270033CCC58233C5829BED9AEC99E582984021
:100237000CF582EE9BFEED9AFDEC99FC0FD5F0D6FE
:10024700E4CEFBE4CDFAE4CCF9A88222B800C1B928
:100257000059BA002DEC8BF084CFCECDFCE5F0CB66
:10026700F97818EF2FFFEE33FEED33FDEC33FCEB9F
:1002770033FB10D703994004EB99FB0FD8E5E4F95A
:10028700FA227818EF2FFFEE33FEED33FDEC33FC47
:10029700C933C910D7059BE99A4007EC9BFCE99A3B
:1002A700F90FD8E0E4C9FAE4CCFB2275F010EF2F80
:1002B700FFEE33FEED33FDCC33CCC833C810D70780
:1002C7009BEC9AE899400AED9BFDEC9AFCE899F8BB
:0E02D7000FD5F0DAE4CDFBE4CCFAE4C8F9224E
:0D02E500CFF4CFCEF4CECDF4CDCCF4CC22AE
:0E02F200C3E49FFFE49EFEE49DFDE49CFC221D
:10030000EB9FF5F0EA9E42F0E99D42F0EC6480C874
:0603100064809845F02214
:10031600EB9FF5F0EA9E42F0E99D42F0E89C45F03D
:0103260022B4
:10032700E8600FECC313FCED13FDEE13FEEF13FFB4
:03033700D8F122D8
:10033A00E8600FEFC333FFEE33FEED33FDEC33FC21
:03034A00D8F122C5
:0C034D00E0FCA3E0FDA3E0FEA3E0FF2223
:10035900E493FC740193FD740293FE740393FF22EA
:0C036900E0F8A3E0F9A3E0FAA3E0FB2217
:0C037500ECF0A3EDF0A3EEF0A3EFF022FB
:10038100A8828583F0D083D0821203981203981239
:100391000398120398E473E493A3C583C5F0C5835E
:1003A100C8C582C8F0A3C583C5F0C583C8C582C8C6
:0103B1002229
:0C03B200A42582F582E5F03583F5832256
:0903BE00E0FBA3E0FAA3E0F92240
:1003C700F8E0FBA3A3E0F925F0F0E58215827002BF
:0703D7001583E0FA38F02263
:0903DE00EBF0A3EAF0A3E9F02220
:1003E700D083D082F8E4937012740193700DA3A3A5
:1003F70093F8740193F5828883E4737402936860B9
:06040700EFA3A3A380DFB8
:06040D008A838982E4737A
:10041300EF4E6012EF60010EEDBB010B89828A8300
:10042300F0A3DFFCDEFA2289F05007F709DFFCA90D
:0C043300F022BBFEFCF309DFFCA9F02264
:00000001FF
