:03000000022412C5
:10241200787FE4F6D8FD9060007F007E07E4F0A3A9
:0A242200DFFCDEFA75816602246714
:0C000300000000000000000000000000F1
:0B367C00EF1FAC0670011E4C70F62220
:10354000AB07AA06EB1BAE0270011A4E600C7FAAF5
:0B3550007E0512367C75D9AA80EA22A5
:101C7C00907120E04480F07F057E0012367CE4FFFA
:101C8C00FE12354075A75575AC5C9071327450F0EE
:101C9C009071307403F0907136742FF090715C7405
:101CAC0003F090715BE054FCF07F18EF2466FDE4C8
:101CBC0034718D82F583E4F00FEFB433EE90401164
:101CCC00E4935407FF90711CE054F84FF0904017C8
:101CDC00E493547FFF90711DE054804FF0904010BE
:101CEC00E493FF5401C43333335480FE907123E0EA
:101CFC00547F4EF0EFC313543F4440FFA3E0548095
:101D0C004FF0904012E493FF540FFE907146E05454
:101D1C00F04EF0EFC4540FFF90714FE054F04FF0C1
:101D2C00904013E493543FFF907140E054C04FF047
:101D3C00904014E493907126F0904015E4939071C8
:0B1D4C0028F0904016E49390712AF0FC
:011D57002269
:10350600000009C4006400C80101F4004B000A0071
:0E35160000010F0405020009000A000A000A65
:1035C200E2FE74DE2FF582E43464F583E02224FC0B
:0835D20025E0FDF87403082256
:10180200E4FF1235C4C3940850581235C4C394047B
:10181200502878C2C0001235C21235D28002C333BA
:10182200D8FCF45ED000F278C2C0001235C2123584
:10183200D28002C333D8FC02193078C3C0001235FB
:10184200C21235D08002C333D8FCF45ED000F278E5
:10185200C3C0001235C21235D08002C333D8FC0295
:1018620019301235C4C3940840681235C4C39410A9
:1018720050601235C4C3940C502C78D2C00012357B
:10188200C224F81235D28002C333D8FCF45ED000F1
:10189200F278D2C0001235C224F81235D28002C3C7
:1018A20033D8FC02193078D3C0001235C224F412A6
:1018B20035D28002C333D8FCF45ED000F278D3C0B4
:1018C200001235C224F41235D28002C333D8FC028E
:1018D20019301235C4C39414502B78E2C00012356B
:1018E200C224F01235D28002C333D8FCF45ED00099
:1018F200F278E2C0001235C224F01235D28002C35F
:1019020033D8FC802978E3C0001235C224EC1235AA
:10191200D28002C333D8FCF45ED000F278E3C00078
:101922001235C224EC1235D28002C333D8FC4ED019
:0B19320000F20FEF64026003021804D3
:01193D002287
:03005D00022FE08F
:102FE000C0E0C0F0C083C082C0D075D000C000C0B7
:102FF00001C002C003C004C005C006C0077881E25A
:1030000030E607E24440F2122A95D007D006D005F8
:10301000D004D003D002D001D000D0D0D082D08351
:05302000D0F0D0E03209
:102E2100D2AF43AB0843B6C0907132E04440F043A7
:102E3100AB087877743FF208744BF2787A7430F209
:102E4100788914F27871744FF2187427F2787274D9
:102E5100A8F2087410F208E4F208F208F2787E741D
:0F2E6100D0F2087404F208741EF2087402F22210
:1025D800E4FBEB25E025E0241CF582E43435F583A3
:1025E800740193FF74DE2BF582E43464F583EFF015
:1025F800EB25E025E0241EF582E43435F583E493E9
:10260800FE740193FFEB25E024E0F582E43464F5E1
:1026180083EEF0A3EFF0EB25E024E4F582E43464E4
:10262800F583E4F0A37441F0E47F01FEFDFC74DE61
:102638002B1235C7F9F81203BCE53F4FFFE53E4EB4
:10264800FEE53D4DFDE53C4C8F3F8E3E8D3DF53C16
:102658000BEB640260030225DA12180212237702D8
:022668002E2121
:07369B00E475F001020203D7
:1030AE00E5B154CF42B153A8BFD2AF75D102789CCF
:1030BE00E254E3F2E2441CF2E254FCF2E24401F286
:1030CE0008E2547FF2E24420F278A17401F21874FF
:1030DE0076F2789CE2541FF2E244C0F243A84022FA
:03002100021EFDBF
:101EFD00C0E0C0F0C083C082C0D075D000C000C0AB
:101F0D0001C002C003C004C005C006C007789DE231
:101F1D0020E703021FB2E24480F2301106906428DC
:101F2D00E004F09063ADE004F090652212369B90D2
:101F3D006501E0FEA3E0FFE4FCFD7BFF7AFFF9F80D
:101F4D00D3120382400690650112369B906467128E
:101F5D0003CFEF2401FFE43EFEE43DFDE43CFC90A5
:101F6D0064671203F790651612369BC3906517E0F0
:101F7D0094D0906516E094074008E4F0A3F09065C6
:101F8D0015F090651912369BC390651AE094649014
:101F9D006519E094004008E4F0A3F0906518F09006
:101FAD00650312369BD007D006D005D004D003D0E0
:101FBD0002D001D000D0D0D082D083D0F0D0E0328A
:071E2C00C11542651E000014
:10000F001203CFEF2401FFE43EFEE43DFDE43CFC90
:01001F0022BE
:10302500E5B254FC42B253A9FED2AF75D1049071FA
:1030350000E054E3F0E0F0E054FCF0E04401F090EF
:1030450071057409F0907104745FF0907101E0549A
:103055007FF0E04420F0907100E0541FF0E044C0A0
:05306500F043A9012267
:030024000222CEE7
:1022CE00C0E0C0F0C083C082C0D075D000C000C0D6
:0D22DE0001C002C003C004C005C006C00757
:0B22EB00907101E030E76AE04480F0F1
:1022F60090651EE475F001120203C390651FE09419
:102306001490651EE094004032E4F0A3F090650955
:1023160012000F9065091203F7E47F587E02FDFC58
:102326009065091203EBC3120398400F20160C9018
:0B233600650912040300000000D2162D
:1023410030951620150F90650512000F9065051246
:0B23510003F7123224D2158002C215DF
:10235C00D007D006D005D004D003D002D001D000D5
:0B236C00D0D0D082D083D0F0D0E0327F
:102DCE0090642B1203CF74212FF582E43464F583C3
:102DDE00229064B8E0FF241EF582E43464F5832269
:102DEE007D00EF75F00FA424F1F9746335F0FA7BD2
:102DFE000122E5822EF582E43583F58322E4F090FC
:102E0E006424E014F090000F2290642AE4F09064A1
:032E1E0029F02276
:0A368700E4906428F0C210D2112272
:0A369100C211E4906428F0C2102278
:1034540078C2E2543FF2E254FCF2E24440F290714A
:1034640081E04404F0907175E04401F043AA20D255
:0B347400AF75D60175D59F75D21122EF
:03004B0002193E59
:10193E00C0E0C0F0C083C082C0D075D000C000C06F
:0D194E0001C002C003C004C005C006C007F0
:10195B009064D7E4F0E5D420E503021A43E5D7F011
:10196B00201204E0B4A509906424E0C3940340035F
:10197B00021A409064D7E0B4A508D212122E1712A7
:10198B00368790642AE0B401089064D7E09064290C
:10199B00F0122DCEE06003021A439064D7E0FF9063
:1019AB00642B1203EB9063F175F00FEB120434EA26
:1019BB0075F00FA42583F583C083C08290642AE061
:1019CB00FE04F0D082D083122E00EFF0906428E456
:1019DB00F0A3E06063E0FFA3E06F705C906429E02C
:1019EB00FB90642B1203CF741E2F122DE6EBF0C26B
:1019FB0012122E17122DCE7401F0906424E004F015
:101A0B0090642B1203CFEF2401FFE43EFEE43DFD77
:101A1B00E43CFC90642B1203F7E47F03FEFDFC9087
:101A2B00642B1203EBC3120398400A90642B12042D
:081A3B000300000000123691C7
:101A4300D007D006D005D004D003D002D001D000F7
:0B1A5300D0D0D082D083D0F0D0E032A1
:0D365600E5D430E4FB8FD7E5D430E4FB224F
:101A5E00E49064B8F0A3F0C218906428E0D3940A1E
:101A6E00400F123691E490642AF0906429F0C2126D
:101A7E0022E49064B8F09064B8E0FFC3940340038E
:101A8E00021B6F74212F122DD7E07003021B66907C
:101A9E0064B8E075F00FA424F2F582E43463F583A4
:101AAE00E0FE741E2F122DE6E06E601A9064B8E010
:101ABE002421122DD7122E0BC083C082122DEED0F0
:061ACE0007D0060204C56A
:101AD400E49064BAF09064B9F0A3F0122DDFE0143E
:101AE400FE9064BAE0FDC39E5022EF75F00FA4246B
:101AF400F1F582E43463F583E5822D122E03E0FFD1
:101B04009064B9E02FF0A3E004F080CF9064B9E0D2
:101B1400F0122DDFE0FEEF75F00FA424F0F582E45F
:101B24003463F583122E00E0FF9064B9E06F600225
:021B3400D218C5
:101B360030181DC2189064B8E0FF2421122DD71268
:101B46002E0BC083C082122DEED007D0061204C51C
:101B56009064B8E02425F582E43464F5837401F0DA
:091B66009064B8E004F0021A8456
:011B6F002253
:10355B0012023C9064BD1203F79064BD0203CF903E
:0B356B007123E05498F0E0441EF022B1
:1000270078C3E2440CF218E2440CF2786AE24478AE
:10003700F27591FF12356A9071227407F0439E7032
:040047004399402277
:1033F8005399E0EF24FD600B04701612356A439967
:1034080005800E907123E054D8F0E04459F04399B8
:0E341800017869E24448F27F017E00023540EF
:10347F007869E24401F2786BE230E1FA7402F2AF5C
:10348F0093EF75F010A4FFAEF0E594C4540FFDEF69
:03349F004DFF22BC
:101D5800E49064BBF0A3F0A312040300000000E4C5
:101D68009064C1F0A3F074FFA3F0A3F0E4A3F0F033
:101D780012347F9064BBEEF0A3EFF09064C5E0C32B
:101D8800940240549064C1E0FEA3E0FF9064BBE07D
:101D9800FCA3E0FDD39FEC9E40089064C1ECF0A347
:101DA800EDF09064C3E0FEA3E0FFC3ED9FEC9E500E
:101DB8000F9064BBE0FFA3E09064C3CFF0A3EFF003
:101DC8009064BD1203EB9064BBE0FEA3E0FFE4FC6B
:101DD800FD12022FA31203F79064C5E004F0E0C3DC
:101DE8009414408C123564C006C0079064C1E0FEAC
:101DF800A3E0FBAA06E4F9F8D007D00612355BC0C9
:101E080006C0079064C3E0FEA3E0FBAA06E4F8D08E
:101E180007D00612355B78041203A99064BBEEF074
:031E2800A3EFF035
:011E2B002294
:10342600A3F078E3E254FCF2E24401F2907192E4F4
:10343600F0229064C5E004F0E0C3940822C2A4C25E
:0E34460096D2977F04FE22FFE0FEA807082220
:102D7600E4FF78D3E2543FF2E24440F290718DE4EE
:102D8600F0E254CFF2E24410F290718CE4F0123487
:102D960028C297C296122CB8EF702A7D0A7F8C1231
:102DA600221F7D017F8812221F7D017F8612221F2E
:102DB600E4FD7F8212221FE4FD7F8412221FE4FDC0
:082DC6007F8012221F022F542E
:10357600E4FDEE25E0FEEF30E004EE4401FEEFC38D
:0935860013FF0DEDB408EBAF06D4
:01358F002219
:022B7C00AC07A4
:102B7E00E49064B9F0AF05123576EC64816019EC1F
:102B8E0064836014EC6485600FEC6487600AEC6407
:082B9E00896005EC648D7043B1
:102BA600E49064BAF0A3F0EC64816004ECB48306AC
:102BB600EF547FFF8017EC64856004ECB48706EF62
:102BC600543FFF8008ECB48904EF541FFFEFC45450
:102BD6000FFE9064BAF0EF540FFFA3F0EE75F00A03
:032BE600A42FFF1A
:012BE90022C9
:05266A009064B9EFF0DF
:10266F00E4A3F012342612344312367CE49064BB98
:10267F00F01226DE9064BBE09064B912344D8002F4
:10268F00C313D8FC30E004D2A48002C2A47F047E1E
:10269F000012367C1226E840D878E3E254FCF27838
:1026AF00E0E24410F2E49064BBF09064BAE025E0FD
:1026BF00F01226DE30A4079064BAE04401F012262F
:0E26CF00E840E7C296C297C2A49064BAE0FF4A
:1026DD0022C2967F047E0012367C22D2967F047E23
:0F26ED000012367C9064BBE004F0E0C394082236
:0535F1009064B8EFF04A
:1035F600E4FE12266AAE079064B8E0FFAD06022B21
:013606007C47
:0826FC009064C3EFF0A3EDF0C0
:10270400E412342612344312367CE49064C5F01289
:1027140027829064C5E09064C312344D8002C313D1
:10272400D8FC30E004D2A48002C2A412277112346F
:102734003840DCE49064C5F01227829064C5E0FF61
:102744009064C4E0FEA807088002C313D8FC30E0FC
:1027540004D2A48002C2A412277112343840D9C210
:0C276400967F047E0012367CC297C2A44F
:10277000227F047E0012367CD2967F047E001236C1
:0C2780007C22C2967F047E0012367C2270
:102CB800122F54D39064A1E094339064A0E0940858
:102CC8005048C3A3E094D09064A0E09407403B90A0
:102CD80064A2E0D3940C5032E0C39401402CA3E0EA
:102CE800D3941F5025E0C39401401FA3E0D3941848
:102CF8005018A3E0943C5012A3E0943C500C90640C
:102D0800A0E0B40708A3E0B4D0037F00227F01222B
:05221F009064BFEFF028
:10222400A3EDF0EF6480601D9064BFE0FF64826002
:1022340014EF6484600FEF6486600AEF64886005BD
:05224400EF648C706CDA
:10224900E49064C1F0A3F09064C0E0FFC3940A4035
:1022590007EF75F00A84A3F09064C0E075F00A8472
:10226900AFF09064C2EFF09064C1E0FEC454F04F47
:102279009064C0F09064BFE0FF64806004EFB482B2
:10228900099064C0E0547FF080229064BFE0FF644D
:10229900846004EFB486099064C0E0543FF0800C78
:0C22A9009064BFE0B48805A3E0541FF06F
:1022B500E4FD7F8E1226FC9064BFE0FFA3E0FD12D3
:0922C50026FC7D807F8E0226FCC0
:10312E009064B8A3E02430FD7F8C12221F9064BA05
:10313E00E0FD7F8812221F9064BBE0FD7F86122285
:10314E001F9064BCE0FD7F8412221F9064BDE0FDE1
:0F315E007F8212221F9064BEE0FD7F8002221F3D
:102F54007F811235F19064A6EFF07F831235F190F2
:102F640064A5EFF07F851235F19064A4EFF07F87BC
:102F74001235F19064A3EFF07F891235F19064A2C9
:102F8400EFF07F8D1235F1EF24D0FEE43407906426
:062F9400A0F0A3CEF02224
:1034C5009064B8F090600D02044090000612016F00
:1034D500FE90000802016F9000091201E190000CB6
:0134E50022C4
:10138600E49064B8F07FFFA374FFF090600D120440
:101396006090000112016FFE120156FDEEC39D50D2
:1013A600030215181234C9900001E41201E19000FD
:1013B6000E1204691204BFEFF4600890600C7423E7
:1013C600F0800990600CE06003E014F01234C990DC
:1013D600000312016F6F601590000512016F600D1A
:1013E600900004E41201E190000302151490000538
:1013F60012016FFE90000412016FC39E500B12344F
:10140600C9900004740102019C1234C990000212B2
:10141600016F6F6048EFF4701C1234CFC39E400A10
:1014260074051234C590000280611234C990000A16
:10143600740102150B1234C990000874011234DFCE
:1014460012016F6F90600D600C120440740112342B
:10145600DCEF02150B120440900009803DEFF4709A
:10146600411234C990000912016FD394005003024F
:10147600150E90000B12016FFE90000A12016FD339
:101486009E401174011234C590000C12016F9064D5
:10149600B9F080541234C990000A740112019C02FA
:1014A600150E1234C91234D6C394FF5008900008A2
:1014B600740112019C1234CFB506089064B8740307
:1014C600F080201234C99000071234D26E70399021
:1014D60064B874041234C890000612016F900008B4
:1014E6001201E19064B9EFF01234C9E41234DC74ED
:1014F600FF1201E19064B9E09000111201E19064DD
:10150600B8E09000121201E11234C9900002EF1205
:0215160001E1F1
:0115180022B0
:101FCD00C2B178E0E254BFF278E3E254CFF2E244DA
:101FDD0010F2907194E4F02290642FF0A374C5F088
:101FED0078317C647A64792F7E007D017B017F02DC
:101FFD000201309064C37B017A64792FE4F0A374FD
:10200D0002F022E0FF7B019064C3E4F0A37411F0B1
:10201D0022906431E0FF90642FE02278447C647D4F
:10202D00017B017A64793322E4F078E3E254CFF254
:10203D0078E0E24440F22275D9AA7B017A647931C5
:10204D00221203CF9064BB0203F7D2B17F047E004E
:10205D0022EF75F020A4FFE5F0F0A3EFF022E47578
:10206D00F001020203906432E064C5221203F7907E
:10207D0064980203CF1203F790649C0203CF90641F
:0D208D00BB0203CFEEF0A3EFF0A30204604E
:10360700122000E4FF1232C91220449064C3122032
:06361700097F010232C927
:103590009064C3122003E4FF1232FE1220449064B0
:0935A000C31220097F010232FE72
:10281A00123590906430E064C5600D122072600831
:10282A007402121FE502289A906430E0B4C507903A
:10283A006432E0B4C50D906430E064C5603512209E
:10284A00727030906430E0B4C510121FED12204748
:10285A009064C31220097F018016122072703478A6
:10286A002F7C647A647931FE121FF7122000E4FF8C
:10287A000232C912201ED39F4007E0906431F080D3
:10288A000F12201EC39F500B906431E090642FF00A
:04289A0012360722C9
:1031E800E490651DF090651BF0A3F090651BE0FE70
:1031F800A3E0FF7B017A65791D9064CCE4F0A30419
:10320800F0122A1EEF600575D9AA80DF90651B129F
:0B321800206BC390651BE0941040D0B9
:013223002288
:1011E000E49064BAF012359012201EB50702800C0C
:1011F00012201ED39F40028003906431E09064BAB5
:10120000F09064BAE020E0099064B8F004A3F080A4
:101210000D9064BAE0FE149064B8F0A3EEF0906410
:10122000B87A6479331220101232FE9064B97A646D
:1012300079441220101232FE906443E064C5602E9F
:1012400090643F1204030000000090643312040312
:101250000000000090643712040300000000906456
:101260003B1204030000000090644374C5F09064D6
:1012700054E064C5600A1220287E007F11120130FC
:101280009064441203CF9064331203EBC3120398AB
:1012900090649450291203CF906444122079906492
:1012A0004812208290644C1203F790645012204E32
:1012B00078337C647D017B017A647944801E12035B
:1012C000CF90643312207990643712208290643B6F
:1012D0001203F790643F12204E1220287E007F11E7
:1012E00012013012208BEF2401FFE43EFEE43DFDAD
:1012F000E43CFC12205112208B90643F1203F71241
:10130000208B9064501203F77FE07E937D047C0075
:101310009064BB1203EBD312039840309064B9E0A1
:10132000049064B8F0E0FE04A3F0EE947E400990CF
:1013300064B8747EF0A304F090643F1204030000CC
:101340000000906450120403000000009064B8E0B4
:10135000FF12202E9064C31220171232C99064B974
:10136000E0FF7B017A6479449064C3122017123243
:10137000C990642FE0FF9064B8E0FE6F6007EE1242
:051380001FE512360715
:011385002245
:1035A900121FCFD2A6D2B17F04FE12367CC2A67FEB
:0935B900047E0012367CC2B1222E
:10352400121FCFC2B1C2A67F04FE12367C122057EE
:0C35340012367CD2A67F047E0002367C9A
:10325D009064CE122035D2A67F047E0012367CD229
:10326D00B1801530A61B9064CEE004F0E0D394FA43
:10327D0040061235247F01227F047E0012367C80A9
:05328D00E2C2B17F0068
:013292002219
:10361D00121FCDC2A67F04FE12367C122057123621
:04362D007CC2B12288
:10363100121FCDD2A67F04FE12367C1220571236FD
:043641007CC2B12274
:052F9A009064CEEFF091
:102F9F00121FCFC2B19064CFF09064CEE0FF548087
:102FAF00C4131313540124FF92A6EF25E0F07F04FE
:102FBF007E0012367C12205712367CC2B17F047EFF
:102FCF000012367C9064CFE004F0E0C3940840C94F
:012FDF0022CF
:052E70009064CEEFF0BC
:102E75009064D0122035E49064CFF0C2B17F047E17
:102E85000012367CD2B19064D0E025E0F030A60384
:102E9500E004F07F047E0012367C9064CFE004F0FD
:102EA500E0C3940840D59064CEE0700512363180B9
:092EB5000312361D9064D0E0FF09
:012EBE0022F1
:10278C009064C71220911235A97FA0122F9A123291
:10279C005DEF60037F01229064C712281060037FF5
:1027AC0001229064C7A312281060037F01227F04CA
:1027BC007E0012367C1235A97FA1122F9A12325D3F
:1027CC00EF60207F01229064CCE07002A3E0601FD8
:1027DC007F01122E709064C9E475F001120449EF68
:1027EC001201CF9064CC74FFF5F012020380D7E491
:1027FC00FF122E709064C9120440EF1201CF1235F3
:0E280C00247F0022E0FF122F9A12325DEF228D
:102A1E009064C71220911235A97FA0122F9A1232FC
:102A2E005DEF60037F01229064C7122A8B60037FE3
:102A3E0001229064C7A3122A8B60037F0122906447
:102A4E00CC74FFF5F012021945F060249064C9129F
:102A5E000440120156FF122F9A12325DEF60037F6F
:102A6E0001229064C712206B9064CA12206B80CE34
:102A7E007F047E0012367C1235247F0022E0FF1286
:072A8E002F9A12325DEF22C6
:0632C9009064C0120460D5
:1032CF009064C512205E9064C5E0FEA3E0FF906499
:1032DF00C01204409064C3E0FDA3E09064CCCDF035
:0E32EF00A3EDF0122A1EEF600575D9AA80D853
:0132FD0022AE
:0632FE009064C0120460A0
:103304009064C512205E9064C5E0FEA3E0FF906463
:10331400C01204409064C3E0FDA3E09064CCCDF0FF
:0E332400A3EDF012278CEF600575D9AA80D8B2
:013332002278
:1035DA00D2A6D2B178F2E254F3F2E24404F2907144
:0735EA0097E4F0121FD52247
:1033970078E2E2543FF2E24440F2907191E0F01299
:1033A70034541233331230AE123663120027122D03
:1033B700761230251235DA122D187F017E0002357C
:0133C70040C5
:10306A00121C7C75D95590715EE054FEF075D9BB7F
:10307A00123397D2A37FE87E03123540C2A375D9D3
:10308A00AA7B017A6379AC121386122165122B0A84
:10309A0012209A121B701224AC121A5E12169C127B
:0430AA000CA680DA16
:103293009064551203CF9064941203F7906459120B
:1032A30003CF9064981203F790645D1203CF906488
:1032B3009C0203F7E0FF7B017A6479559064C3E4D1
:0632C300F0A37411F022DB
:102D180012281A90642FE09064B8F01232B7123279
:102D2800FE906465E0B4C50F123293906494120368
:102D3800CF9064B91203F79064B8E020E00404F07F
:102D480080069064B8E014F09064B81232B712327A
:102D5800FE906465E0B4C5159064551203CF906485
:0D2D6800B91203EBC312039850031232930B
:012D7500223B
:0336A7000211E02D
:10316D00FEE02FFFEC3EFEA3E02FFFEC3EFE22FA29
:10317D001203CF7E00EB2FFFEE3AFE3395E0FDFC00
:10318D00221203A97E009064B8E022FC9064BD0277
:0E319D0003F79064BD0203CF9064B90203CF24
:050AA0009064B8EFF0C6
:100AA5009064BD120403000000007FA512365612A3
:100AB500319FEF24A5FFE43EFEE43DFDE43C123109
:100AC500989064B8E0FF64016032EF6402602DEF36
:100AD50064036028EF64046023EF6405601EEF641F
:100AE500066019EF64096014EF640A600FEF641182
:100AF500600AEF64126005EF641370207F05120C25
:100B050080120C92C0001231A51231912405FDE42A
:100B150033CD2FFFEE3D123187020C4A9064B8E0C9
:100B2500FF6407600AEF64086005EF641070337FA7
:100B3500061236569064B8E0FF120C68120C92C08B
:100B450000C002C0031231A5780812318E2406FDBB
:100B5500E433CD2FFBEE3DA312317CD003D002024E
:100B65000C4A9064B8E0FF640B600FEF640C600AF8
:100B7500EF64146005EF640D70467F07120C8078F2
:100B8500101203A9120C68120C9CC000C002C0030D
:100B95001231A5781012318E2407FDE433CD2FFBD9
:100BA500EE3DFAA31203CF78081203A97E00EB2FBE
:100BB500FBEE3A9064B912317CD003D002020C4AA4
:100BC5009064B8E0640E6003020C527F0B12365637
:100BD5007F0E1236569064A0E0FF1236569064A040
:100BE500E0A3E0FF1236569064A2E0FF123656905D
:100BF50064A3E0FF1236569064A4E0FF12365690C7
:100C050064A5E0FF1236569064A6E0FF120C9CC066
:100C150000C001C002C0039064A0E02419FFE433C2
:100C2500FEE0A3E07C002FFFEC3E9064A212316D44
:100C3500A3E02FFFEC3EA312316D3395E0FDFCD010
:100C450003D002D001D00012022F12319912319F28
:100C5500E4FEFD12319812319F1236567F017E0057
:030C650002354015
:100C68001236569064B91203CF78081203A91236C7
:100C7800569064B91203CF221236569064B8E0FF3A
:100C88001236569064B91203CF221236569064BDBC
:0E0C98001203EB221236569064BD1203EB22BB
:1033330078E3E2543FF278F2E254FCF278D3E254B9
:10334300FCF218E2543FF2E254FCF278C3E2543F39
:10335300F2E254CFF278E2E254FCF278E0E2440184
:02336300F22254
:102B0A00C3906523E094C8906522E094004062E493
:102B1A00F0A3F02086069064AFF0804020870890EA
:102B2A0064AF7401F080352090089064AF7402F0AD
:102B3A00802A2093089064AF7403F0801F209408C1
:102B4A009064AF7404F0801420B0089064AF7405E8
:102B5A00F0800920A7069064AF7406F0D20120A085
:102B6A00079064B674018004E49064B6F0A3F0D2CE
:022B7A00062231
:101E3300C116446505000000004465090000000068
:0E1E430044650D000000004465110000000021
:0C3670001203EB02022FE4FDFC0203EB4E
:0D36630078D3E254F3F278D0E24420F22252
:1032240090650D1203CF90650912367090650D12EA
:1032340003F7906509120403000000009065111261
:1032440003CF9065051236709065111203F79065EF
:0932540005120403000000002231
:10209A009064B8120403000000009064BC120403A8
:1020AA00000000007FF47E0190650D123676C3129F
:1020BA00039850062016030221647F2E7E04906541
:1020CA001112367612024AE47B03FAF9F81202D5A3
:1020DA009064BC1203F730160C9064B81204030023
:1020EA000000008027E47F24FEFDFC9064BC1203FC
:1020FA00EB12024AE47B0AFAF9F81202D590650D4E
:10210A001203EB1202D59064B81203F79064FD1221
:10211A0003CF9064BC1236709064FD1203F7906589
:10212A00111204030000000090650D120403000060
:10213A000000C2169064B81203CF9064ABEEF0A30D
:10214A00EFF0D39064ACE094E79064ABE094034082
:0A215A00077403F0A374E7F0D20449
:012164002258
:041E51004164F000F8
:1033C8001203CFEF2401FFE43EFEE43DFDE43CFCA4
:1033D800221203CF12023CE47B64FAF9F8C3020319
:1033E800987F7F7E967D987C001203EBC30203983A
:101B7000C3906502E094E8906501E09403400F3063
:101B8000170C1236A7C217E4906501F0A3F0E47FAA
:101B9000E87E03FDFC9064FD1233F140717F187EF6
:101BA000C67D9A7C3B9064941233F1500C906494FF
:101BB0001233C89064941203F79064981233E9507A
:101BC0000C9064981233C89064981203F790649C48
:101BD0001233E9500C90649C1233C890649C120339
:101BE000F79064FD1203CFC3EF94E8FFEE9403FE79
:0E1BF000ED9400FDEC9400FC9064FD1203F7F0
:101BFE009064F0E004F0E0C3940A4004E4F0D217DD
:101C0E009064F11203EB9064941233D9500E9064E9
:101C1E00941203CF9064F11203F7D2089064F51278
:101C2E0003EB9064981233D9500E9064981203CF40
:101C3E009064F51203F7D2099064F91203EB9064E5
:101C4E009C1233D9500E90649C1203CF9064F912FB
:101C5E0003F7D20AC3906504E09488906503E0947C
:0D1C6E0013400AE4F0A3F0D208D209D20A14
:011C7B002246
:1030EE00906498E47B64FAF9F81203CF1202D5903B
:1030FE0064B90203F79064AFE0FFE4FCFDFE22909A
:10310E0064ABE0FEA3E0FFE4FCFD22E47BE87A037F
:10311E00F9F8906494229064B8E0FF75F00FA42241
:10169C00E49064B8F0F09064B8E0FFC394034003A6
:1016AC0002180174252FF582E43464F583E070038D
:1016BC000217F89064B8E0FB75F00FA424F3F582E0
:1016CC00E43463F583E012049916F18016F68B1658
:1016DC00FB8C17058E170094179998179D9917A1D5
:1016EC009A000017A3D2000217A3D2080217A3D2A4
:1016FC00090217A3D20A0217A3D20BEB75F00FA4A1
:10170C0024F4F582E43463F583123106780812036D
:10171C00BCEB75F00FA424F5F582E43463F583E09B
:10172C007C002FFFEC3E9064A0F0A3EFF01231246C
:10173C0024F6F582E43463F583E09064A2F0EF754F
:10174C00F00FA424F7F582E43463F583E09064A3EE
:10175C00F012312424F8F582E43463F583E09064CC
:10176C00A4F0EF75F00FA424F9F582E43463F5834B
:10177C00E09064A5F09064B8E075F00FA424FAF53D
:10178C0082E43463F583E09064A6F0800AD20D8085
:10179C0006D20E8002D20F906424E0D39400400352
:1017AC00E014F09064B8E0FF2425F582E43464F58D
:1017BC0083E4F0741E2FF582E43464F583E4F07452
:1017CC00212FF582E43464F583E4F0FE7F0FC0062C
:1017DC00C007FD9064B8E075F00FA424F1F97463B0
:1017EC0035F0FA7B01D007D0061204C59064B8E03E
:0517FC0004F00216A23A
:0118010022C4
:100CA600200003020D37C200906515E06003020DB7
:100CB6003704F01231031230FD7F01120AA090644E
:100CC600B01231061230FD7F02120AA09064A712FC
:100CD60003CF1230FD7F07120AA012310D1230FD2C
:100CE6007F08120AA09064B21231061230FD7F0905
:100CF600120AA01231191230F77F0B120AA0123015
:100D0600EE7F0C120AA0122F549064B9120403004D
:100D16000000007F0E120AA09064AD12311012304E
:100D2600FD7F10120AA090649C1230F17F14120A03
:100D3600A030010DC2011231031230FD7F01120AEB
:100D4600A0300210C2029064B01231061230FD7F4C
:100D560002120AA0300310C2039064A71203CF1236
:100D660030FD7F07120AA030040DC20412310D12A5
:100D760030FD7F08120AA0300510C2059064B21239
:100D860031061230FD7F09120AA030061EC20690F7
:100D960064B61231061230FD7F12120AA09064B7B3
:100DA6001231061230FD7F13120AA030080DC20858
:100DB6001231191230F77F0B120AA030090AC20944
:100DC6001230EE7F0C120AA0300A13C20AE47B64CA
:100DD600FAF9F890649C1230F77F14120AA0300BCF
:100DE60023C20B906518E0701B78B87C647D017B8C
:100DF600017A6479A0FE7F0712013012312E9065C8
:100E0600187401F0300C10C20C9064AD123110123F
:100E160030FD7F10120AA0300D19C20D9064941295
:100E26000403000000009064FD12040300000000AB
:100E36001236A7300E19C20E9064981204030000F1
:100E460000009064FD120403000000001236A73073
:100E56000F19C20F90649C120403000000009064F6
:0C0E6600FD120403000000001236A72259
:101E55005463BF00010153000204730003075300DC
:101E650004091D00050CED5E63D3010102030405A1
:101E750002060708090A030B0C0D0E0F04101112B8
:101E850013140515161718195363AC0A0000000042
:0E1E9500033241000000000001FF3365000031
:0F004E00EC75F006A424D3F582E43463F5832225
:102EBF00E4FD9064BAF0A374FFF0ED25E025E02463
:102ECF00C1F582E43463F583E0FAA3E0D39FEA9E71
:102EDF00401CED25E025E024BFF582E43463F58343
:102EEF00E0FFA3E09064BACFF0A3EFF080050DED03
:0B2EFF00B405C79064BAE0FEA3E0FF3A
:012F0A0022A4
:1034A200E4FEFC12004EE0B5071112004EE5822D3B
:1034B200F582E43583F583E0FE80050CECB405E388
:0234C200AF0653
:0134C40022E5
:10336500E49064B8F0A3F07F021233F812347F9032
:1033750064B8EEF0A3EFF09064B8E0FEA3E0FF12AE
:103385002EBF9064B8EEF0A3EFF09064B8E0A3E030
:01339500FF38
:013396002214
:102165009063BDE0700302221EE0FFA3E0FD123480
:10217500A2E49063BDF0A3F0EF12049921A301211D
:10218500AF0421BB0621C70921D30B21DF0E21EBAB
:102195001021F713220315220F180000221E906448
:1021A500B9120403000000CF806A9064B9120403D9
:1021B500000100CF805E9064B9120403000000D2D4
:1021C50080529064B9120403000100D280469064E5
:1021D500B9120403000000D1803A9064B9120403D7
:1021E500000100D1802E9064B91204030000007F25
:1021F50080229064B91204030001007F8016906468
:10220500B9120403000000D0800A9064B9120403D7
:09221500000100D07F0D120AA0A7
:01221E00229D
:101EA300446467000000006028646B0000000000C9
:101EB300000000000000000000000000000000001F
:101EC300000000000000000000000000000000000F
:0B1ED3000000004164930041646600C1
:102F0B00FFEE34F8FEE434FFFDE434FFFCE4FAF9A1
:102F1B00F812024AE4229064BBE0FEA3E0FF22FA1F
:102F2B00F9F81202D5AD07C322FEE434FFFDE434F9
:102F3B00FFFCE42225E0246BF582E43464F5832264
:092F4B00FDFC1203EBC302039824
:042BEA00AB07AA0685
:102BEE00E49064BBF0A312040300000000AE02AF39
:102BFE0003906493E0FD04F0ED122F3FEEF0A3EF8F
:102C0E00F0906493E0C394144002E4F0E49064BB4B
:102C1E00F09064BC1203EB9064BBE0122F3FE0FE19
:102C2E00A3E0FFE4FCFD12022F9064BC1203F790A8
:102C3E0064BBE004F0E0B414D8E47B14FAF9F89025
:082C4E0064BC1203CF0202D5A1
:10364500E4FDED122F3FEEF0A3EFF00DEDB414F213
:013655002252
:081519009064BBEEF0A3EFF0BB
:10152100E4FDC3EF940BEE940E500A122F2194F4B4
:10153100EE940150057DFF021699D3EF9495EE9438
:101541000B4005E4FD021699D3EF944DEE9406503D
:10155100057D64021699D3EF9495EE940B5028EF14
:101561009439EE940A4020122F21EF24C7FFEE3464
:10157100F5122F347B12122F197B5C7A01122F2B5B
:1015810074129DFD021699122F21D39439EE940AFB
:101591005031EF943BEE940940299064BBA3EF24B2
:1015A100C5FFEE34F6122F347B22122F197BFE1267
:1015B1002F2A74229DFDC3941240030216997D12B5
:1015C100021699122F21D3943BEE94095031EF94D6
:1015D1007CEE940840299064BBA3EF2484FFEE3491
:1015E100F7122F347B33122F197BBF122F2A74333A
:1015F1009DFDC3942240030216997D220216991281
:101601002F21D3947CEE94085027EF94F0EE9407A9
:10161100401F9064BBA3EF24107B44122F0B7B8CE3
:10162100122F2A74449DFDC39433506C7D330216EE
:1016310099122F21D394F0EE94075026EF941AEECD
:101641009407401E9064BBA3EF24E67B54122F0B3A
:101651007BD6122F2A74549DFDC39444503A7D4485
:101661008036122F21D3941AEE9407502BEF944D0C
:10167100EE940640239064BBA3EF24B3FFEE34F94C
:10168100122F347B64122F197BCD122F2A74649D83
:0A169100FDC3945450027D54AF05D0
:01169B00222C
:1024AC00E49064B8F0A3F0A3F07F031233F8122584
:0C24BC0039122BEA9064B9EEF0A3EFF0A7
:1024C800906466E070327FF47E01A3122F4B40289F
:1024D8009064671204030000000012253912364583
:1024E800906520E0FEA3E0FF9064B9EEF0A3EFF062
:0824F80012252390646604F034
:10250000E47FE87E03906467122F4B401590646768
:10251000120403000000009064B9E0FEA3E0FF1283
:02252000252371
:10252200221215199064B8EFF09064B2F0E490644E
:10253200B9F0A3F0D20522121D58906520EEF0A347
:03254200EFF02295
:101EDE0041601801426019000041601B0041601C06
:0E1EEE000041601D0041601E7F42601FFFFF2B
:1031AB00E4F561AE3EAD3DAC3C853F178E168D15FB
:1031BB008C14787EE254FCF2E24514F218E515F219
:1031CB0018E516F218E517F2787FE254FBF2E25499
:0D31DB00FB4404F2E24401F27F0102289E51
:10084E00906526EFF0E0FF24DAF582E43464F58358
:10085E00E004F074DC2FF582E43464F583E4F07484
:10086E00DA2FF582E43464F583E0C3956350030216
:10087E000A9F906526E0FB24DAF582E43464F58362
:10088E00E4F09035179364016003020A507F01FE75
:10089E00FDFC74DE2BF582E43464F583E0F9F81286
:1008AE0003BCE51F4FF51FE51E4EF51EE51D4DF56C
:1008BE001DE51C4CF51CAF1FAE1EAD1DFC780112C4
:1008CE0003A9EF5455FBEE5455FAED5455F9EC547B
:1008DE0055F8C3E51F9BF53BE51E9AF53AE51D99C4
:1008EE00F539E51C98F538AF3BAE3AAD39FC7802D8
:1008FE001203A9EF5433FBEE5433FAED5433F9ECF3
:10090E005433F8E53B5433FFE53A5433FEE539549E
:10091E0033FDE5385433FCEB2FF53BEA3EF53AE96F
:10092E003DF539E83CF538AF3BAE3AAD39FC7804CD
:10093E001203A9EF253BFFEE353AFEED3539FDECFE
:10094E003538FCEF540FF53BEE540FF53AED540FDE
:10095E00F539EC540FF538AF3BAE3AAD39FC7808AB
:10096E001203A9EF253BFFEE353AED3539FDEC3597
:10097E0038EFF53BE4F53AEDF539E4F538AE3AAC3F
:10098E003878101203A9EF253BFFEE353AFEEFF54E
:10099E003BEEF53AE4F539F538906526E025E0248E
:1009AE00E8F582E43464F583E0FEA3E0D39553EEDC
:1009BE0095524024906526E0FF25E024E8F582E478
:1009CE003464F583E0F552A3E0F55374DE2FF5821F
:1009DE00E43464F583E0F564903517E493FFE4FCAA
:1009EE00FDFEAB3BAA3AA939A838D3120398405260
:1009FE00AF650565D3EF9403748094805003020AAB
:100A0E009FE4F565F51FF51EF51DF51C7F01FEFD36
:100A1E00FCA964A8011203BC8F1B8E1A8D198C18A9
:100A2E00E47F01FEFDFCA8011203BC8F338E328DD4
:100A3E00318C30E4F552F553756420122922433778
:100A4E000222E4F5657F01FEFDFC906526E0FB24A5
:100A5E00DEF582E43464F583E0F9F81203BCE51B9D
:100A6E004FF51BE51A4EF51AE5194DF519E5184C1B
:100A7E00F518E47F01FEFDFCA8031203BCE5334F1D
:100A8E00F533E5324EF532E5314DF531E5304CF5C5
:020A9E00302204
:10050F00E4F56690351BE493FFE566C39F40030255
:10051F00084DE56625E02400F582E4346085828A83
:10052F007F548F8B7E0E8E8C758903758889E56657
:10053F0025E02400F582E4346085828A8F8B758CE8
:10054F0012758904758889E56625E02408F582E42B
:10055F003460F583E0FCA3E0C3950FEC950E502EAD
:10056F00E56625E02414F582E43460F583E0FCA30E
:10057F00E0C39513EC95125015AF600560EF940230
:10058F0074809480400BE4F5605337FD8003E4F5ED
:10059F0060E53730E125E56625E024E8F582E434AF
:1005AF0064F583E4F0A3F0E56625E024ECF582E43E
:1005BF003464F583E4F0A3F002065DE56625E024DC
:1005CF0008F582E4346085828A8E8B758C0A758972
:1005DF00267588892088FDE5F130E00875F107E47C
:1005EF00F50AF50BAE0AE50B7802C333CE33CED83E
:1005FF00F9FFE56625E024E8F582E43464F583EE3F
:10060F00F0A3EFF0E56625E02414F582E43460856D
:10061F00828A758B12758C0A75892775888920884F
:10062F00FDE5F130E00875F107E4F50AF50BAE0AC8
:10063F00E50B7802C333CE33CED8F9FFE56625E05C
:10064F0024ECF582E43464F583EEF0A3EFF0E56675
:10065F0025E024E0F582E43464F583E0FEA3E0783E
:10066F0002CEC313CE13D8F9F5518E50E56625E0AF
:10067F0024E8F582E43464F583E0FEA3E0FF9035CF
:10068F0013E493FC740193FDC3EF9DEE9C4017E5BB
:10069F006625E024ECF582E43464F583E0FEA3E004
:1006AF00C39DEE9C50028068E56625E024E8F58244
:1006BF00E43464F583E0FEA3E0C39551EE9550401A
:1006CF001CE56625E024ECF582E43464F583E0FE56
:1006DF00A3E0C39551EE9550400302076974D825E6
:1006EF0066F582E43464F583E004F074D82566F58A
:1006FF0082E43464F583E0FF903518E493FEEFD382
:10070F009E406474D82566F582E43464F583E4F082
:10071F00E56625E02404F582E43460F583E0FEA36A
:10072F00E0FFE56625E02408F582E43460F583EE0A
:10073F00F0A3EFF0E56625E02410F582E43460F5D0
:10074F0083E0FEA3E0FFE56625E02414F582E434A0
:10075F0060F583EEF0A3EFF0800D74D82566F58277
:10076F00E43464F583E4F0E56625E02404F582E4DF
:10077F00346085828AE56625E02400F582E43460E2
:10078F0085828B758C0A7589207588CB2088FDE54D
:10079F00F130E00875F107E4F50AF50BE56625E0A1
:1007AF002404F582E4346085828A758B547F0E8F22
:1007BF008C7589237588897E0A8E8A8F8BE56625CD
:1007CF00E02404F582E4346085828CE4F589758831
:1007DF0029E56625E02410F582E4346085828AE5F8
:1007EF006625E02400F582E4346085828B8E8C755B
:1007FF0089207588CB2088FDE5F130E00875F10779
:10080F00E4F50AF50BE56625E02410F582E4346083
:10081F0085828A758B547F0E8F8C75892475888994
:10082F00758A0A8F8BE56625E02410F582E4346023
:0F083F0085828CE4F589758829056602051222E9
:100E7200E4F56690351BE493FFE566C39F400302E9
:100E8200102AE56625E024E0F582E43464F583E087
:100E9200FEA3E07802CEC313CE13D8F9F5518E50DB
:100EA200E56625E024E8F582E43464F583E0FEA3F8
:100EB200E0D39551EE9550402EE56625E024ECF501
:100EC20082E43464F583E0FEA3E0D39551EE9550BD
:100ED200401574DC2566F582E43464F583E4F0AFF2
:100EE2006612084E02102590351AE493FFC3E551AD
:100EF2009FFFE5509400FED3EF9400EE9400400271
:100F020080047E007F00E56625E024E8F582E43473
:100F120064F583E0FCA3E0C39FEC9E40030210183B
:100F220090351AE493FFC3E5519FFFE5509400FE0C
:100F3200D3EF9400EE9400400280047E007F00E52F
:100F42006625E024ECF582E43464F583E0FCA3E05A
:100F5200C39FEC9E400302101874DA2566F582E402
:100F62003464F583E4F074DC2566F582E43464F5D8
:100F720083E004F074DC2566F582E43464F583E0F2
:100F8200C39563500302102574DC2566F582E434B0
:100F920064F583E4F07F01FEFDFC74DE2566F582D4
:100FA200E43464F583E0F9F81203BC120367E51F29
:100FB2005FF51FE51E5EF51EE51D5DF51DE51C5C7A
:100FC200F51CE47F01FEFDFCA966A8011203BC1218
:100FD2000367E5335FF533E5325EF532E5315DF502
:100FE20031E5305CF530E47F01FEFDFC74DE256600
:100FF200F582E43464F583E0F9F81203BC12036766
:10100200E51B5FF51BE51A5EF51AE5195DF519E5B5
:10101200185CF518800D74DC2566F582E43464F5FD
:0910220083E4F00566020E75225C
:10292200E4F56690351BE493FFE566C39F506EE5C0
:102932006625E024E8F582E43464F583E4F0A3F04C
:10294200E56625E024ECF582E43464F583E4F0A343
:10295200F0E56625E02404F582E43460F583E0FEC8
:10296200A3E0FFE56625E02408F582E43460F58300
:10297200EEF0A3EFF0E56625E02410F582E4346082
:10298200F583E0FEA3E0FFE56625E02414F582E48A
:0E2992003460F583EEF0A3EFF0056680862238
:10254500E4F56690351BE493FFE566C39F506790FD
:102555006018E0FF7E00C39410748094805053EFA0
:102565009408748094804025E56625E02400F58272
:10257500E43460F583E0FEA3E0FFE56625E024048E
:10258500F582E43460F583EE8FF0120203E56625EB
:10259500E02400F582E43460F583E0FEA3E0FFE586
:1025A5006625E02410F582E43460F583EE8FF012A1
:1025B50002030566808D906018E0C39410748094C2
:1025C5008040054337048006906018E004F07F01E1
:0325D50002289E3B
:1029A000E4FFFEFDFCAB1BAA1AA919A818C3120369
:1029B00098606390601AE004F07006906019E0047B
:1029C000F090350FE493FE740193FF4E602ED39088
:1029D000601AE09F906019E09E4021E4F0A3F0F5BA
:1029E0001FF51EF51DF51CF533F532F531F530F503
:1029F0001BF51AF519F518C214022922903511E4B5
:102A000093FE740193FFD390601AE09F906019E0E9
:0D2A10009E400AD21422E4906019F0A3F059
:012A1D002296
:05102B009064D2EFF01B
:10103000A3E0FCA3E0FDA3E0FEA3E0F52B8E2A8D48
:10104000298C287884E2F50A08E2F50B758A087580
:101050008B28758C2475881D2088FDE4FFFEFDFC1F
:10106000AB27AA26A925A824D31203824006AC24C4
:10107000A8048013AF27AE26AD25AC24120374ABB1
:1010800007AA06A905A80490601FE0FEA3E0FFE4FC
:10109000FCFDC31203825041E4FFFEFDFCAB27AA16
:1010A00026A925A8241203824006AF27AE26800B6E
:1010B000AF27AE26AD25AC2412037490601FEEF06E
:1010C000A3EFF09064D2E025E024E4F582E43464F8
:1010D000F583E0A3E090601EF090350CE493FE747D
:1010E0000193FFD3906020E09F90601FE09E501B13
:1010F0009064D2E025E024E4F582E43464F583E0F2
:10110000A3E090601EF090601B8079E4FFFEFDFC80
:10111000AB27AA26A925A824D312038240349064C1
:10112000D2E0FF25E024E4F582E43464F583E0FCBA
:10113000A3E0D39400EC9400404DEF25E024E4F5C7
:1011400082E43464F58374FFF5F012020390601CAE
:1011500080329064D2E0FF25E024E4F582E4346438
:10116000F583E0FCA3E0C3947FEC94005019EF25D5
:10117000E024E4F582E43464F583E475F0011202BE
:101180000390601D7401F090601CE064017011A375
:10119000E06401700B90601CF0A3F090601B04F001
:1011A00090601BE06401703590601EE0FF9064D297
:1011B000E025E024E4F582E43464F583E4F0A3EF71
:1011C000F074FF90601FF0A3F090601E747FF0E455
:0F11D00090601CF0A3F090601BF07F01227F0065
:0111DF0022ED
:102C5600E49064D1F09035061203DB78011203BCD0
:102C66009064D31203F7AF6112102BEF6022056157
:102C7600E53730E4095337EF9064D17401F09035AD
:102C86001BE493FFE561C39F4006E4F561433710FB
:102C9600C390350A7401939562E4939400400890BA
:102CA60064D1E064017005D2130231ABE4FF12284F
:012CB6009E7F
:012CB70022FA
:10289E00EF70607F01FEFDFC74DE2561F582E4348D
:1028AE0064F583E0F9F81203BC8F178E168D158C24
:1028BE0014787EE254FCF2E24514F218E515F21893
:1028CE00E516F218E517F2E56125E024E4F582E459
:1028DE003464F583E0A3E0547FFF7878E254804FB0
:1028EE00F2787FE254FBF2E254FB4404F2E244013C
:1028FE00F2801CE56125E024E4F582E43464F5837E
:10290E00E0A3E0547FFF7878E254804FF2787FE2C4
:04291E004402F2225B
:10237700E4906524F0A3F0906524E0FEA3E0FFC39A
:102387009488EE94035031EF240FFFEE34058F82CB
:10239700F583E493FF906525E02421FD906524E013
:1023A70034608D82F583EFF0906525E004F070C707
:0823B700906524E004F080BFF2
:1023BF009063A97401F0A37460F0A37421F0E4F5A5
:1023CF0061F537F536F535F534C213C214F51FF53F
:1023DF001EF51DF51CF533F532F531F530F51BF50E
:1023EF001AF519F51890351593FF903519E493FEEA
:1023FF00A807088002C333D8FCF563756420E4FF97
:03240F0002289E02
:102A95007884E2F50A08E2F50BAE0A7803CEC31393
:102AA500CE13D8F97802C333CE33CED8F9FFE5611A
:102AB50025E02400F582E43460F583EEF0A3EFF021
:102AC50020130F90350EE4937005D2130231AB023B
:102AD5002C56056190351BE493FFE561C39F401FAC
:102AE500787FE254FBF2E254FB4404F2E24401F243
:102AF500E4F561E53720E203022545433701227FEE
:052B05000112289E22D0
:0536A20005620229A0F1
:1034E600E53730E01A9063A9A3E0FAA3E0F91204E5
:1034F600BF120E72E4F5617F0112289E5337FE2239
:10242C0002306AE493A3F8E493A34003F68001F22C
:10243C0008DFF48029E493A3F85407240CC8C333B1
:10244C00C4540F4420C8834004F456800146F6DF80
:10245C00E4800B0102040810204080901E2CE47EC6
:10246C00019360BCA3FF543F30E509541FFEE49375
:10247C00A360010ECF54C025E060A840B8E493A33C
:10248C00FAE493A3F8E493A3C8C582C8CAC583CA67
:10249C00F0A3C8C582C8CAC583CADFE9DEE780BE1F
:011EFC0000E5
:10006000E709F608DFFA8046E709F208DFFA803E82
:1000700088828C83E709F0A3DFFA8032E309F6086F
:10008000DFFA8078E309F208DFFA807088828C83D7
:10009000E309F0A3DFFA806489828A83E0A3F6088B
:1000A000DFFA805889828A83E0A3F208DFFA804C65
:1000B00080D280FA80C680D4806980F2803380103C
:1000C00080A680EA809A80A880DA80E280CA8033A5
:1000D00089828A83ECFAE493A3C8C582C8CCC5831D
:1000E000CCF0A3C8C582C8CCC583CCDFE9DEE780ED
:1000F0000D89828A83E493A3F608DFF9ECFAA9F06C
:10010000EDFB2289828A83ECFAE0A3C8C582C8CCC1
:10011000C583CCF0A3C8C582C8CCC583CCDFEADEDA
:10012000E880DB89828A83E493A3F208DFF980CC3C
:1001300088F0EF60010E4E60C388F0ED2402B40435
:100140000050B9F582EB2402B4040050AF232345DC
:0601500082239000B07351
:10015600BB010689828A83E0225002E722BBFE02A7
:09016600E32289828A83E49322DA
:10016F00BB010CE58229F582E5833AF583E0225045
:10017F0006E92582F8E622BBFE06E92582F8E2228F
:0D018F00E58229F582E5833AF583E49322A9
:10019C00BB010FF8E58229F582E5833AF583E02867
:1001AC00F0225009C58229F8E58226F622BBFE0909
:1001BC00C58229F8E22582F222F8EA2583F583E943
:0301CC0093282253
:1001CF00BB010689828A83F0225002F722BBFE010F
:0201DF00F32209
:1001E100F8BB010DE58229F582E5833AF583E8F054
:1001F100225006E92582C8F622BBFE05E92582C800
:02020100F222E7
:10020300C5F0F8A3E028F0C5F0F8E5821582700286
:060213001583E038F02223
:10021900A3F8E0C5F025F0F0E58215827002158398
:06022900E0C838F0E822F5
:0D022F00EF2BFFEE3AFEED39FDEC38FC221E
:0E023C00C3EF9BFFEE9AFEED99FDEC98FC22BD
:10024A00E88FF0A4CC8BF0A42CFCE98EF0A42CFC53
:10025A008AF0EDA42CFCEA8EF0A4CDA8F08BF0A4D1
:10026A002DCC3825F0FDE98FF0A42CCD35F0FCEB30
:10027A008EF0A4FEA9F0EB8FF0A4CFC5F02ECD39F5
:0F028A00FEE43CFCEAA42DCE35F0FDE43CFC2262
:1002990075F008758200EF2FFFEE33FECD33CDCC1C
:1002A90033CCC58233C5829BED9AEC99E58298409F
:1002B9000CF582EE9BFEED9AFDEC99FC0FD5F0D67C
:1002C900E4CEFBE4CDFAE4CCF9A88222B800C1B9A6
:1002D9000059BA002DEC8BF084CFCECDFCE5F0CBE4
:1002E900F97818EF2FFFEE33FEED33FDEC33FCEB1D
:1002F90033FB10D703994004EB99FB0FD8E5E4F9D8
:10030900FA227818EF2FFFEE33FEED33FDEC33FCC4
:10031900C933C910D7059BE99A4007EC9BFCE99AB8
:10032900F90FD8E0E4C9FAE4CCFB2275F010EF2FFD
:10033900FFEE33FEED33FDCC33CCC833C810D707FD
:100349009BEC9AE899400AED9BFDEC9AFCE899F838
:0E0359000FD5F0DAE4CDFBE4CCFAE4C8F922CB
:0D036700CFF4CFCEF4CECDF4CDCCF4CC222B
:0E037400C3E49FFFE49EFEE49DFDE49CFC229A
:10038200EB9FF5F0EA9E42F0E99D42F0EC6480C8F2
:0603920064809845F02292
:10039800EB9FF5F0EA9E42F0E99D42F0E89C45F0BB
:0103A8002232
:1003A900E8600FECC313FCED13FDEE13FEEF13FF32
:0303B900D8F12256
:1003BC00E8600FEFC333FFEE33FEED33FDEC33FC9F
:0303CC00D8F12243
:0C03CF00E0FCA3E0FDA3E0FEA3E0FF22A1
:1003DB00E493FC740193FD740293FE740393FF2268
:0C03EB00E0F8A3E0F9A3E0FAA3E0FB2295
:0C03F700ECF0A3EDF0A3EEF0A3EFF02279
:10040300A8828583F0D083D08212041A12041A12B0
:10041300041A12041AE473E493A3C583C5F0C583D5
:10042300C8C582C8F0A3C583C5F0C583C8C582C843
:0104330022A6
:0C043400A42582F582E5F03583F58322D3
:09044000E0FBA3E0FAA3E0F922BD
:10044900F8E0FBA3A3E0F925F0F0E582158270023C
:070459001583E0FA38F022E0
:09046000EBF0A3EAF0A3E9F0229D
:10046900BB010DE58229F582E5833AF58302044053
:100479005007E92582F80204F1BBFE07E92582F855
:100489000204FAE58229F582E5833AF58302050338
:10049900D083D082F8E4937012740193700DA3A3F2
:1004A90093F8740193F5828883E473740293686006
:0604B900EFA3A3A380DF06
:0604BF008A838982E473C8
:1004C500EF4E6012EF60010EEDBB010B89828A834E
:1004D500F0A3DFFCDEFA2289F05007F709DFFCA95B
:0C04E500F022BBFEFCF309DFFCA9F022B2
:0904F100E6FB08E6FA08E6F92230
:0904FA00E2FB08E2FA08E2F92233
:0C050300E493FB740193FA740293F92254
:00000001FF
